{
  "_format": "hh-sol-artifact-1",
  "contractName": "Social",
  "sourceName": "contracts/Social.sol",
  "abi": [
    {
      "anonymous": false,
      "inputs": [],
      "name": "AccountAdded",
      "type": "event"
    },
    {
      "anonymous": false,
      "inputs": [
        {
          "indexed": false,
          "internalType": "uint256",
          "name": "advertisementId",
          "type": "uint256"
        },
        {
          "indexed": false,
          "internalType": "address",
          "name": "author",
          "type": "address"
        }
      ],
      "name": "AdvertisementAdded",
      "type": "event"
    },
    {
      "anonymous": false,
      "inputs": [
        {
          "components": [
            {
              "internalType": "uint256",
              "name": "advertisementId",
              "type": "uint256"
            },
            {
              "internalType": "address",
              "name": "author",
              "type": "address"
            },
            {
              "internalType": "string",
              "name": "content",
              "type": "string"
            },
            {
              "internalType": "string",
              "name": "imageUrl",
              "type": "string"
            },
            {
              "internalType": "uint256",
              "name": "count",
              "type": "uint256"
            }
          ],
          "indexed": false,
          "internalType": "struct Social.Advertisement",
          "name": "Ad",
          "type": "tuple"
        }
      ],
      "name": "AdvertisementRendered",
      "type": "event"
    },
    {
      "anonymous": false,
      "inputs": [],
      "name": "AllFundsWithdrawn",
      "type": "event"
    },
    {
      "anonymous": false,
      "inputs": [
        {
          "indexed": false,
          "internalType": "uint256",
          "name": "postId",
          "type": "uint256"
        },
        {
          "indexed": false,
          "internalType": "string",
          "name": "comment",
          "type": "string"
        }
      ],
      "name": "CommentsAdded",
      "type": "event"
    },
    {
      "anonymous": false,
      "inputs": [
        {
          "indexed": false,
          "internalType": "address",
          "name": "author",
          "type": "address"
        }
      ],
      "name": "LoyalAdded",
      "type": "event"
    },
    {
      "anonymous": false,
      "inputs": [
        {
          "indexed": false,
          "internalType": "address",
          "name": "account",
          "type": "address"
        },
        {
          "indexed": false,
          "internalType": "uint256",
          "name": "amount",
          "type": "uint256"
        }
      ],
      "name": "LoyaltyRewardsDistributed",
      "type": "event"
    },
    {
      "anonymous": false,
      "inputs": [
        {
          "indexed": false,
          "internalType": "uint256",
          "name": "postId",
          "type": "uint256"
        },
        {
          "indexed": false,
          "internalType": "address",
          "name": "author",
          "type": "address"
        }
      ],
      "name": "PostAdded",
      "type": "event"
    },
    {
      "anonymous": false,
      "inputs": [
        {
          "indexed": false,
          "internalType": "uint256",
          "name": "postId",
          "type": "uint256"
        },
        {
          "indexed": false,
          "internalType": "address",
          "name": "likedBy",
          "type": "address"
        }
      ],
      "name": "PostLiked",
      "type": "event"
    },
    {
      "anonymous": false,
      "inputs": [
        {
          "indexed": false,
          "internalType": "address",
          "name": "account",
          "type": "address"
        },
        {
          "indexed": false,
          "internalType": "uint256",
          "name": "amount",
          "type": "uint256"
        }
      ],
      "name": "RewardsWithdrawn",
      "type": "event"
    },
    {
      "inputs": [
        {
          "internalType": "address",
          "name": "",
          "type": "address"
        }
      ],
      "name": "accounts",
      "outputs": [
        {
          "internalType": "address payable",
          "name": "author",
          "type": "address"
        },
        {
          "internalType": "string",
          "name": "username",
          "type": "string"
        },
        {
          "internalType": "string",
          "name": "avatar",
          "type": "string"
        },
        {
          "internalType": "uint256",
          "name": "rewards",
          "type": "uint256"
        },
        {
          "internalType": "uint256",
          "name": "loyaltyRewards",
          "type": "uint256"
        }
      ],
      "stateMutability": "view",
      "type": "function"
    },
    {
      "inputs": [
        {
          "internalType": "address payable",
          "name": "_author",
          "type": "address"
        },
        {
          "internalType": "string",
          "name": "_username",
          "type": "string"
        },
        {
          "internalType": "string",
          "name": "_avatar",
          "type": "string"
        }
      ],
      "name": "addAccount",
      "outputs": [],
      "stateMutability": "nonpayable",
      "type": "function"
    },
    {
      "inputs": [
        {
          "internalType": "string",
          "name": "_content",
          "type": "string"
        },
        {
          "internalType": "uint256",
          "name": "_count",
          "type": "uint256"
        },
        {
          "internalType": "string",
          "name": "_imageUrl",
          "type": "string"
        }
      ],
      "name": "addAdvertisement",
      "outputs": [],
      "stateMutability": "payable",
      "type": "function"
    },
    {
      "inputs": [
        {
          "internalType": "uint256",
          "name": "_postId",
          "type": "uint256"
        },
        {
          "internalType": "string",
          "name": "_content",
          "type": "string"
        }
      ],
      "name": "addComments",
      "outputs": [],
      "stateMutability": "nonpayable",
      "type": "function"
    },
    {
      "inputs": [
        {
          "internalType": "address payable",
          "name": "_loyalAddress",
          "type": "address"
        }
      ],
      "name": "addLoyal",
      "outputs": [],
      "stateMutability": "nonpayable",
      "type": "function"
    },
    {
      "inputs": [
        {
          "internalType": "string",
          "name": "_content",
          "type": "string"
        },
        {
          "internalType": "string",
          "name": "_headline",
          "type": "string"
        },
        {
          "internalType": "string",
          "name": "_imageUrl",
          "type": "string"
        }
      ],
      "name": "addPost",
      "outputs": [],
      "stateMutability": "nonpayable",
      "type": "function"
    },
    {
      "inputs": [
        {
          "internalType": "uint256",
          "name": "",
          "type": "uint256"
        }
      ],
      "name": "ads",
      "outputs": [
        {
          "internalType": "uint256",
          "name": "advertisementId",
          "type": "uint256"
        },
        {
          "internalType": "address",
          "name": "author",
          "type": "address"
        },
        {
          "internalType": "string",
          "name": "content",
          "type": "string"
        },
        {
          "internalType": "string",
          "name": "imageUrl",
          "type": "string"
        },
        {
          "internalType": "uint256",
          "name": "count",
          "type": "uint256"
        }
      ],
      "stateMutability": "view",
      "type": "function"
    },
    {
      "inputs": [],
      "name": "distributeLoyaltyRewards",
      "outputs": [],
      "stateMutability": "nonpayable",
      "type": "function"
    },
    {
      "inputs": [],
      "name": "getInteractions",
      "outputs": [
        {
          "components": [
            {
              "internalType": "uint256",
              "name": "score",
              "type": "uint256"
            },
            {
              "internalType": "address",
              "name": "user",
              "type": "address"
            },
            {
              "internalType": "string",
              "name": "username",
              "type": "string"
            }
          ],
          "internalType": "struct Social.interactionObject[]",
          "name": "",
          "type": "tuple[]"
        }
      ],
      "stateMutability": "view",
      "type": "function"
    },
    {
      "inputs": [
        {
          "internalType": "uint256",
          "name": "_postid",
          "type": "uint256"
        }
      ],
      "name": "getPost",
      "outputs": [
        {
          "components": [
            {
              "internalType": "uint256",
              "name": "postId",
              "type": "uint256"
            },
            {
              "internalType": "address",
              "name": "author",
              "type": "address"
            },
            {
              "internalType": "string",
              "name": "username",
              "type": "string"
            },
            {
              "internalType": "string",
              "name": "headline",
              "type": "string"
            },
            {
              "internalType": "string",
              "name": "content",
              "type": "string"
            },
            {
              "internalType": "string",
              "name": "imageUrl",
              "type": "string"
            },
            {
              "internalType": "uint256",
              "name": "likes",
              "type": "uint256"
            },
            {
              "internalType": "string[]",
              "name": "comments",
              "type": "string[]"
            }
          ],
          "internalType": "struct Social.Post",
          "name": "",
          "type": "tuple"
        }
      ],
      "stateMutability": "view",
      "type": "function"
    },
    {
      "inputs": [],
      "name": "getPosts",
      "outputs": [
        {
          "components": [
            {
              "internalType": "uint256",
              "name": "postId",
              "type": "uint256"
            },
            {
              "internalType": "address",
              "name": "author",
              "type": "address"
            },
            {
              "internalType": "string",
              "name": "username",
              "type": "string"
            },
            {
              "internalType": "string",
              "name": "headline",
              "type": "string"
            },
            {
              "internalType": "string",
              "name": "content",
              "type": "string"
            },
            {
              "internalType": "string",
              "name": "imageUrl",
              "type": "string"
            },
            {
              "internalType": "uint256",
              "name": "likes",
              "type": "uint256"
            },
            {
              "internalType": "string[]",
              "name": "comments",
              "type": "string[]"
            }
          ],
          "internalType": "struct Social.Post[]",
          "name": "",
          "type": "tuple[]"
        }
      ],
      "stateMutability": "view",
      "type": "function"
    },
    {
      "inputs": [
        {
          "internalType": "address",
          "name": "acc_id",
          "type": "address"
        }
      ],
      "name": "getUser",
      "outputs": [
        {
          "components": [
            {
              "internalType": "address payable",
              "name": "author",
              "type": "address"
            },
            {
              "internalType": "address payable[]",
              "name": "loyalAddress",
              "type": "address[]"
            },
            {
              "internalType": "string",
              "name": "username",
              "type": "string"
            },
            {
              "internalType": "string",
              "name": "avatar",
              "type": "string"
            },
            {
              "internalType": "uint256",
              "name": "rewards",
              "type": "uint256"
            },
            {
              "internalType": "uint256",
              "name": "loyaltyRewards",
              "type": "uint256"
            }
          ],
          "internalType": "struct Social.Account",
          "name": "",
          "type": "tuple"
        }
      ],
      "stateMutability": "view",
      "type": "function"
    },
    {
      "inputs": [
        {
          "internalType": "address",
          "name": "",
          "type": "address"
        },
        {
          "internalType": "uint256",
          "name": "",
          "type": "uint256"
        }
      ],
      "name": "interactions",
      "outputs": [
        {
          "internalType": "uint256",
          "name": "score",
          "type": "uint256"
        },
        {
          "internalType": "address",
          "name": "user",
          "type": "address"
        },
        {
          "internalType": "string",
          "name": "username",
          "type": "string"
        }
      ],
      "stateMutability": "view",
      "type": "function"
    },
    {
      "inputs": [
        {
          "internalType": "uint256",
          "name": "_postId",
          "type": "uint256"
        }
      ],
      "name": "isLiked",
      "outputs": [
        {
          "internalType": "bool",
          "name": "",
          "type": "bool"
        }
      ],
      "stateMutability": "view",
      "type": "function"
    },
    {
      "inputs": [
        {
          "internalType": "uint256",
          "name": "_postId",
          "type": "uint256"
        }
      ],
      "name": "likePost",
      "outputs": [],
      "stateMutability": "nonpayable",
      "type": "function"
    },
    {
      "inputs": [
        {
          "internalType": "uint256",
          "name": "",
          "type": "uint256"
        },
        {
          "internalType": "address",
          "name": "",
          "type": "address"
        }
      ],
      "name": "likesMapping",
      "outputs": [
        {
          "internalType": "bool",
          "name": "",
          "type": "bool"
        }
      ],
      "stateMutability": "view",
      "type": "function"
    },
    {
      "inputs": [],
      "name": "nextAdvertisementId",
      "outputs": [
        {
          "internalType": "uint256",
          "name": "",
          "type": "uint256"
        }
      ],
      "stateMutability": "view",
      "type": "function"
    },
    {
      "inputs": [],
      "name": "nextPostId",
      "outputs": [
        {
          "internalType": "uint256",
          "name": "",
          "type": "uint256"
        }
      ],
      "stateMutability": "view",
      "type": "function"
    },
    {
      "inputs": [
        {
          "internalType": "uint256",
          "name": "",
          "type": "uint256"
        }
      ],
      "name": "posts",
      "outputs": [
        {
          "internalType": "uint256",
          "name": "postId",
          "type": "uint256"
        },
        {
          "internalType": "address",
          "name": "author",
          "type": "address"
        },
        {
          "internalType": "string",
          "name": "username",
          "type": "string"
        },
        {
          "internalType": "string",
          "name": "headline",
          "type": "string"
        },
        {
          "internalType": "string",
          "name": "content",
          "type": "string"
        },
        {
          "internalType": "string",
          "name": "imageUrl",
          "type": "string"
        },
        {
          "internalType": "uint256",
          "name": "likes",
          "type": "uint256"
        }
      ],
      "stateMutability": "view",
      "type": "function"
    },
    {
      "inputs": [
        {
          "internalType": "address",
          "name": "_recipientId",
          "type": "address"
        },
        {
          "internalType": "uint256",
          "name": "_postId",
          "type": "uint256"
        }
      ],
      "name": "renderAds",
      "outputs": [
        {
          "components": [
            {
              "internalType": "uint256",
              "name": "advertisementId",
              "type": "uint256"
            },
            {
              "internalType": "address",
              "name": "author",
              "type": "address"
            },
            {
              "internalType": "string",
              "name": "content",
              "type": "string"
            },
            {
              "internalType": "string",
              "name": "imageUrl",
              "type": "string"
            },
            {
              "internalType": "uint256",
              "name": "count",
              "type": "uint256"
            }
          ],
          "internalType": "struct Social.Advertisement",
          "name": "",
          "type": "tuple"
        }
      ],
      "stateMutability": "nonpayable",
      "type": "function"
    },
    {
      "inputs": [
        {
          "internalType": "uint256",
          "name": "_postId",
          "type": "uint256"
        }
      ],
      "name": "unlikePost",
      "outputs": [],
      "stateMutability": "nonpayable",
      "type": "function"
    },
    {
      "inputs": [],
      "name": "withdrawAllFunds",
      "outputs": [],
      "stateMutability": "nonpayable",
      "type": "function"
    },
    {
      "inputs": [],
      "name": "withdrawRewards",
      "outputs": [],
      "stateMutability": "nonpayable",
      "type": "function"
    }
  ],
  "bytecode": "0x6080604052600060075534801561001557600080fd5b506163be80620000266000396000f3fe6080604052600436106101405760003560e01c8063725009d3116100b6578063a3de89591161006f578063a3de895914610481578063c7b8981c146104aa578063dbe8c6db146104c1578063de1d5da4146104ec578063f24627df14610517578063fa188de91461055457610140565b8063725009d31461036e57806380fd5638146103975780638e4ccb23146103b35780638f9ee220146103dc5780638fd998e11461041957806396d9811f1461045857610140565b806349649fbf1161010857806349649fbf1461025a5780634b6d49b11461027157806355015d7b146102885780635c09bd98146102c55780635e5c06e2146102f05780636f77926b1461033157610140565b80630b1e7f831461014557806311a7a4c014610188578063224ae14a146101c957806340731c24146101f257806341f3004a1461022f575b600080fd5b34801561015157600080fd5b5061016c6004803603810190610167919061455c565b61057d565b60405161017f9796959493929190614669565b60405180910390f35b34801561019457600080fd5b506101af60048036038101906101aa919061455c565b61080f565b6040516101c09594939291906146f4565b60405180910390f35b3480156101d557600080fd5b506101f060048036038101906101eb919061488a565b610985565b005b3480156101fe57600080fd5b506102196004803603810190610214919061455c565b610c4b565b6040516102269190614b27565b60405180910390f35b34801561023b57600080fd5b50610244611013565b6040516102519190614cd7565b60405180910390f35b34801561026657600080fd5b5061026f6113fe565b005b34801561027d57600080fd5b5061028661153c565b005b34801561029457600080fd5b506102af60048036038101906102aa9190614d25565b611863565b6040516102bc9190614d80565b60405180910390f35b3480156102d157600080fd5b506102da611892565b6040516102e79190614d9b565b60405180910390f35b3480156102fc57600080fd5b5061031760048036038101906103129190614db6565b611898565b604051610328959493929190614e04565b60405180910390f35b34801561033d57600080fd5b5061035860048036038101906103539190614db6565b6119fe565b6040516103659190614fba565b60405180910390f35b34801561037a57600080fd5b506103956004803603810190610390919061455c565b611d43565b005b6103b160048036038101906103ac9190614fdc565b612400565b005b3480156103bf57600080fd5b506103da60048036038101906103d59190615067565b61259e565b005b3480156103e857600080fd5b5061040360048036038101906103fe919061455c565b612b74565b6040516104109190614d80565b60405180910390f35b34801561042557600080fd5b50610440600480360381019061043b91906150c3565b612bda565b60405161044f93929190615103565b60405180910390f35b34801561046457600080fd5b5061047f600480360381019061047a919061516d565b612cc9565b005b34801561048d57600080fd5b506104a860048036038101906104a3919061519a565b6130a7565b005b3480156104b657600080fd5b506104bf61339b565b005b3480156104cd57600080fd5b506104d6613532565b6040516104e39190615337565b60405180910390f35b3480156104f857600080fd5b506105016136c0565b60405161050e9190614d9b565b60405180910390f35b34801561052357600080fd5b5061053e600480360381019061053991906150c3565b6136c6565b60405161054b91906153d6565b60405180910390f35b34801561056057600080fd5b5061057b6004803603810190610576919061455c565b6140bc565b005b6001818154811061058d57600080fd5b90600052602060002090600802016000915090508060000154908060010160009054906101000a900473ffffffffffffffffffffffffffffffffffffffff16908060020180546105dc90615427565b80601f016020809104026020016040519081016040528092919081815260200182805461060890615427565b80156106555780601f1061062a57610100808354040283529160200191610655565b820191906000526020600020905b81548152906001019060200180831161063857829003601f168201915b50505050509080600301805461066a90615427565b80601f016020809104026020016040519081016040528092919081815260200182805461069690615427565b80156106e35780601f106106b8576101008083540402835291602001916106e3565b820191906000526020600020905b8154815290600101906020018083116106c657829003601f168201915b5050505050908060040180546106f890615427565b80601f016020809104026020016040519081016040528092919081815260200182805461072490615427565b80156107715780601f1061074657610100808354040283529160200191610771565b820191906000526020600020905b81548152906001019060200180831161075457829003601f168201915b50505050509080600501805461078690615427565b80601f01602080910402602001604051908101604052809291908181526020018280546107b290615427565b80156107ff5780601f106107d4576101008083540402835291602001916107ff565b820191906000526020600020905b8154815290600101906020018083116107e257829003601f168201915b5050505050908060060154905087565b6002818154811061081f57600080fd5b90600052602060002090600502016000915090508060000154908060010160009054906101000a900473ffffffffffffffffffffffffffffffffffffffff169080600201805461086e90615427565b80601f016020809104026020016040519081016040528092919081815260200182805461089a90615427565b80156108e75780601f106108bc576101008083540402835291602001916108e7565b820191906000526020600020905b8154815290600101906020018083116108ca57829003601f168201915b5050505050908060030180546108fc90615427565b80601f016020809104026020016040519081016040528092919081815260200182805461092890615427565b80156109755780601f1061094a57610100808354040283529160200191610975565b820191906000526020600020905b81548152906001019060200180831161095857829003601f168201915b5050505050908060040154905085565b6000600360003373ffffffffffffffffffffffffffffffffffffffff1673ffffffffffffffffffffffffffffffffffffffff16815260200190815260200160002060020180546109d490615427565b80601f0160208091040260200160405190810160405280929190818152602001828054610a0090615427565b8015610a4d5780601f10610a2257610100808354040283529160200191610a4d565b820191906000526020600020905b815481529060010190602001808311610a3057829003601f168201915b50505050509050600160405180610100016040528060045481526020013373ffffffffffffffffffffffffffffffffffffffff16815260200183815260200185815260200186815260200184815260200160008152602001600067ffffffffffffffff811115610ac057610abf61475f565b5b604051908082528060200260200182016040528015610af357816020015b6060815260200190600190039081610ade5790505b5081525090806001815401808255809150506001900390600052602060002090600802016000909190919091506000820151816000015560208201518160010160006101000a81548173ffffffffffffffffffffffffffffffffffffffff021916908373ffffffffffffffffffffffffffffffffffffffff1602179055506040820151816002019081610b869190615604565b506060820151816003019081610b9c9190615604565b506080820151816004019081610bb29190615604565b5060a0820151816005019081610bc89190615604565b5060c0820151816006015560e0820151816007019080519060200190610bef9291906142c2565b5050507fcbddbfb53425ae82ea5081822f4ab52d73e4bc0d37a45087fb1d9655582b335060045433604051610c259291906156d6565b60405180910390a160046000815480929190610c409061572e565b919050555050505050565b610c5361431b565b60018281548110610c6757610c66615776565b5b906000526020600020906008020160405180610100016040529081600082015481526020016001820160009054906101000a900473ffffffffffffffffffffffffffffffffffffffff1673ffffffffffffffffffffffffffffffffffffffff1673ffffffffffffffffffffffffffffffffffffffff168152602001600282018054610cf190615427565b80601f0160208091040260200160405190810160405280929190818152602001828054610d1d90615427565b8015610d6a5780601f10610d3f57610100808354040283529160200191610d6a565b820191906000526020600020905b815481529060010190602001808311610d4d57829003601f168201915b50505050508152602001600382018054610d8390615427565b80601f0160208091040260200160405190810160405280929190818152602001828054610daf90615427565b8015610dfc5780601f10610dd157610100808354040283529160200191610dfc565b820191906000526020600020905b815481529060010190602001808311610ddf57829003601f168201915b50505050508152602001600482018054610e1590615427565b80601f0160208091040260200160405190810160405280929190818152602001828054610e4190615427565b8015610e8e5780601f10610e6357610100808354040283529160200191610e8e565b820191906000526020600020905b815481529060010190602001808311610e7157829003601f168201915b50505050508152602001600582018054610ea790615427565b80601f0160208091040260200160405190810160405280929190818152602001828054610ed390615427565b8015610f205780601f10610ef557610100808354040283529160200191610f20565b820191906000526020600020905b815481529060010190602001808311610f0357829003601f168201915b505050505081526020016006820154815260200160078201805480602002602001604051908101604052809291908181526020016000905b82821015611004578382906000526020600020018054610f7790615427565b80601f0160208091040260200160405190810160405280929190818152602001828054610fa390615427565b8015610ff05780601f10610fc557610100808354040283529160200191610ff0565b820191906000526020600020905b815481529060010190602001808311610fd357829003601f168201915b505050505081526020019060010190610f58565b50505050815250509050919050565b60606001805480602002602001604051908101604052809291908181526020016000905b828210156113f5578382906000526020600020906008020160405180610100016040529081600082015481526020016001820160009054906101000a900473ffffffffffffffffffffffffffffffffffffffff1673ffffffffffffffffffffffffffffffffffffffff1673ffffffffffffffffffffffffffffffffffffffff1681526020016002820180546110cb90615427565b80601f01602080910402602001604051908101604052809291908181526020018280546110f790615427565b80156111445780601f1061111957610100808354040283529160200191611144565b820191906000526020600020905b81548152906001019060200180831161112757829003601f168201915b5050505050815260200160038201805461115d90615427565b80601f016020809104026020016040519081016040528092919081815260200182805461118990615427565b80156111d65780601f106111ab576101008083540402835291602001916111d6565b820191906000526020600020905b8154815290600101906020018083116111b957829003601f168201915b505050505081526020016004820180546111ef90615427565b80601f016020809104026020016040519081016040528092919081815260200182805461121b90615427565b80156112685780601f1061123d57610100808354040283529160200191611268565b820191906000526020600020905b81548152906001019060200180831161124b57829003601f168201915b5050505050815260200160058201805461128190615427565b80601f01602080910402602001604051908101604052809291908181526020018280546112ad90615427565b80156112fa5780601f106112cf576101008083540402835291602001916112fa565b820191906000526020600020905b8154815290600101906020018083116112dd57829003601f168201915b505050505081526020016006820154815260200160078201805480602002602001604051908101604052809291908181526020016000905b828210156113de57838290600052602060002001805461135190615427565b80601f016020809104026020016040519081016040528092919081815260200182805461137d90615427565b80156113ca5780601f1061139f576101008083540402835291602001916113ca565b820191906000526020600020905b8154815290600101906020018083116113ad57829003601f168201915b505050505081526020019060010190611332565b505050508152505081526020019060010190611037565b50505050905090565b73d9b7062384f7cce39e96c13962f9c79d4c94143873ffffffffffffffffffffffffffffffffffffffff163373ffffffffffffffffffffffffffffffffffffffff1614611480576040517f08c379a000000000000000000000000000000000000000000000000000000000815260040161147790615817565b60405180910390fd5b6000600754116114c5576040517f08c379a00000000000000000000000000000000000000000000000000000000081526004016114bc906158a9565b60405180910390fd5b3373ffffffffffffffffffffffffffffffffffffffff166108fc6007549081150290604051600060405180830381858888f1935050505015801561150d573d6000803e3d6000fd5b507ff75fefae3ed4cf4e96a2b9f2edb619f09a058d15def478e0bde6675a0205248560405160405180910390a1565b6000600360003373ffffffffffffffffffffffffffffffffffffffff1673ffffffffffffffffffffffffffffffffffffffff168152602001908152602001600020600501549050600081116115c6576040517f08c379a00000000000000000000000000000000000000000000000000000000081526004016115bd90615915565b60405180910390fd5b6000600360003373ffffffffffffffffffffffffffffffffffffffff1673ffffffffffffffffffffffffffffffffffffffff168152602001908152602001600020600101805490500361164e576040517f08c379a000000000000000000000000000000000000000000000000000000000815260040161164590615981565b60405180910390fd5b60005b600360003373ffffffffffffffffffffffffffffffffffffffff1673ffffffffffffffffffffffffffffffffffffffff168152602001908152602001600020600101805490508110156117de576000600360003373ffffffffffffffffffffffffffffffffffffffff1673ffffffffffffffffffffffffffffffffffffffff16815260200190815260200160002060010182815481106116f4576116f3615776565b5b9060005260206000200160009054906101000a900473ffffffffffffffffffffffffffffffffffffffff169050600360003373ffffffffffffffffffffffffffffffffffffffff1673ffffffffffffffffffffffffffffffffffffffff168152602001908152602001600020600101805490508361177291906159d0565b600360008373ffffffffffffffffffffffffffffffffffffffff1673ffffffffffffffffffffffffffffffffffffffff16815260200190815260200160002060040160008282546117c39190615a01565b925050819055505080806117d69061572e565b915050611651565b506000600360003373ffffffffffffffffffffffffffffffffffffffff1673ffffffffffffffffffffffffffffffffffffffff168152602001908152602001600020600501819055507f093c34ee1a205cff82735a055cf2754b8001ab5733e3a6e6b2662e269cbc80963382604051611858929190615a35565b60405180910390a150565b60006020528160005260406000206020528060005260406000206000915091509054906101000a900460ff1681565b60045481565b60036020528060005260406000206000915090508060000160009054906101000a900473ffffffffffffffffffffffffffffffffffffffff16908060020180546118e190615427565b80601f016020809104026020016040519081016040528092919081815260200182805461190d90615427565b801561195a5780601f1061192f5761010080835404028352916020019161195a565b820191906000526020600020905b81548152906001019060200180831161193d57829003601f168201915b50505050509080600301805461196f90615427565b80601f016020809104026020016040519081016040528092919081815260200182805461199b90615427565b80156119e85780601f106119bd576101008083540402835291602001916119e8565b820191906000526020600020905b8154815290600101906020018083116119cb57829003601f168201915b5050505050908060040154908060050154905085565b611a06614376565b8173ffffffffffffffffffffffffffffffffffffffff16600360008473ffffffffffffffffffffffffffffffffffffffff1673ffffffffffffffffffffffffffffffffffffffff16815260200190815260200160002060000160009054906101000a900473ffffffffffffffffffffffffffffffffffffffff1673ffffffffffffffffffffffffffffffffffffffff1614611ad6576040517f08c379a0000000000000000000000000000000000000000000000000000000008152600401611acd90615aaa565b60405180910390fd5b600360008373ffffffffffffffffffffffffffffffffffffffff1673ffffffffffffffffffffffffffffffffffffffff1681526020019081526020016000206040518060c00160405290816000820160009054906101000a900473ffffffffffffffffffffffffffffffffffffffff1673ffffffffffffffffffffffffffffffffffffffff1673ffffffffffffffffffffffffffffffffffffffff16815260200160018201805480602002602001604051908101604052809291908181526020018280548015611bfb57602002820191906000526020600020905b8160009054906101000a900473ffffffffffffffffffffffffffffffffffffffff1673ffffffffffffffffffffffffffffffffffffffff1681526020019060010190808311611bb1575b50505050508152602001600282018054611c1490615427565b80601f0160208091040260200160405190810160405280929190818152602001828054611c4090615427565b8015611c8d5780601f10611c6257610100808354040283529160200191611c8d565b820191906000526020600020905b815481529060010190602001808311611c7057829003601f168201915b50505050508152602001600382018054611ca690615427565b80601f0160208091040260200160405190810160405280929190818152602001828054611cd290615427565b8015611d1f5780601f10611cf457610100808354040283529160200191611d1f565b820191906000526020600020905b815481529060010190602001808311611d0257829003601f168201915b50505050508152602001600482015481526020016005820154815250509050919050565b6001805490508110611d8a576040517f08c379a0000000000000000000000000000000000000000000000000000000008152600401611d8190615b16565b60405180910390fd5b60008082815260200190815260200160002060003373ffffffffffffffffffffffffffffffffffffffff1673ffffffffffffffffffffffffffffffffffffffff16815260200190815260200160002060009054906101000a900460ff1615611e27576040517f08c379a0000000000000000000000000000000000000000000000000000000008152600401611e1e90615b82565b60405180910390fd5b60018181548110611e3b57611e3a615776565b5b90600052602060002090600802016006016000815480929190611e5d9061572e565b9190505550600160008083815260200190815260200160002060003373ffffffffffffffffffffffffffffffffffffffff1673ffffffffffffffffffffffffffffffffffffffff16815260200190815260200160002060006101000a81548160ff02191690831515021790555060018181548110611ede57611edd615776565b5b906000526020600020906008020160010160009054906101000a900473ffffffffffffffffffffffffffffffffffffffff1673ffffffffffffffffffffffffffffffffffffffff163373ffffffffffffffffffffffffffffffffffffffff16146123c4576000805b6008600060018581548110611f5e57611f5d615776565b5b906000526020600020906008020160010160009054906101000a900473ffffffffffffffffffffffffffffffffffffffff1673ffffffffffffffffffffffffffffffffffffffff1673ffffffffffffffffffffffffffffffffffffffff168152602001908152602001600020805490508110156121a6573373ffffffffffffffffffffffffffffffffffffffff16600860006001868154811061200457612003615776565b5b906000526020600020906008020160010160009054906101000a900473ffffffffffffffffffffffffffffffffffffffff1673ffffffffffffffffffffffffffffffffffffffff1673ffffffffffffffffffffffffffffffffffffffff168152602001908152602001600020828154811061208257612081615776565b5b906000526020600020906003020160010160009054906101000a900473ffffffffffffffffffffffffffffffffffffffff1673ffffffffffffffffffffffffffffffffffffffff160361219357600260086000600186815481106120e9576120e8615776565b5b906000526020600020906008020160010160009054906101000a900473ffffffffffffffffffffffffffffffffffffffff1673ffffffffffffffffffffffffffffffffffffffff1673ffffffffffffffffffffffffffffffffffffffff168152602001908152602001600020828154811061216757612166615776565b5b906000526020600020906003020160000160008282546121879190615a01565b92505081905550600191505b808061219e9061572e565b915050611f46565b50600081036123c25760086000600184815481106121c7576121c6615776565b5b906000526020600020906008020160010160009054906101000a900473ffffffffffffffffffffffffffffffffffffffff1673ffffffffffffffffffffffffffffffffffffffff1673ffffffffffffffffffffffffffffffffffffffff1681526020019081526020016000206040518060600160405280600281526020013373ffffffffffffffffffffffffffffffffffffffff168152602001600360003373ffffffffffffffffffffffffffffffffffffffff1673ffffffffffffffffffffffffffffffffffffffff16815260200190815260200160002060020180546122ae90615427565b80601f01602080910402602001604051908101604052809291908181526020018280546122da90615427565b80156123275780601f106122fc57610100808354040283529160200191612327565b820191906000526020600020905b81548152906001019060200180831161230a57829003601f168201915b505050505081525090806001815401808255809150506001900390600052602060002090600302016000909190919091506000820151816000015560208201518160010160006101000a81548173ffffffffffffffffffffffffffffffffffffffff021916908373ffffffffffffffffffffffffffffffffffffffff16021790555060408201518160020190816123be9190615604565b5050505b505b7fcf765d6f163c9b0d832e2a94f4c8e9bffd32a2c3ca5fdbb8cc67b5fe1441f41381336040516123f59291906156d6565b60405180910390a150565b655af3107a4000826124129190615ba2565b3414612453576040517f08c379a000000000000000000000000000000000000000000000000000000000815260040161244a90615c56565b60405180910390fd5b60026040518060a0016040528060055481526020013373ffffffffffffffffffffffffffffffffffffffff1681526020018581526020018381526020018481525090806001815401808255809150506001900390600052602060002090600502016000909190919091506000820151816000015560208201518160010160006101000a81548173ffffffffffffffffffffffffffffffffffffffff021916908373ffffffffffffffffffffffffffffffffffffffff16021790555060408201518160020190816125239190615604565b5060608201518160030190816125399190615604565b506080820151816004015550507fcd5564575bfb2465468592a49409cb955c94dba0e4f362e63e1e17d768376b37600554336040516125799291906156d6565b60405180910390a1600560008154809291906125949061572e565b9190505550505050565b60018054905082106125e5576040517f08c379a00000000000000000000000000000000000000000000000000000000081526004016125dc90615b16565b60405180910390fd5b600182815481106125f9576125f8615776565b5b90600052602060002090600802016007018190806001815401808255809150506001900390600052602060002001600090919091909150908161263c9190615604565b507f31b8fb140a9781860311e9bc0ac7116b8bd7b6d7cb6961095c04b5be7f47882e828260405161266e929190615c76565b60405180910390a16001828154811061268a57612689615776565b5b906000526020600020906008020160010160009054906101000a900473ffffffffffffffffffffffffffffffffffffffff1673ffffffffffffffffffffffffffffffffffffffff163373ffffffffffffffffffffffffffffffffffffffff1614612b70576000805b600860006001868154811061270a57612709615776565b5b906000526020600020906008020160010160009054906101000a900473ffffffffffffffffffffffffffffffffffffffff1673ffffffffffffffffffffffffffffffffffffffff1673ffffffffffffffffffffffffffffffffffffffff16815260200190815260200160002080549050811015612952573373ffffffffffffffffffffffffffffffffffffffff1660086000600187815481106127b0576127af615776565b5b906000526020600020906008020160010160009054906101000a900473ffffffffffffffffffffffffffffffffffffffff1673ffffffffffffffffffffffffffffffffffffffff1673ffffffffffffffffffffffffffffffffffffffff168152602001908152602001600020828154811061282e5761282d615776565b5b906000526020600020906003020160010160009054906101000a900473ffffffffffffffffffffffffffffffffffffffff1673ffffffffffffffffffffffffffffffffffffffff160361293f576003600860006001878154811061289557612894615776565b5b906000526020600020906008020160010160009054906101000a900473ffffffffffffffffffffffffffffffffffffffff1673ffffffffffffffffffffffffffffffffffffffff1673ffffffffffffffffffffffffffffffffffffffff168152602001908152602001600020828154811061291357612912615776565b5b906000526020600020906003020160000160008282546129339190615a01565b92505081905550600191505b808061294a9061572e565b9150506126f2565b5060008103612b6e57600860006001858154811061297357612972615776565b5b906000526020600020906008020160010160009054906101000a900473ffffffffffffffffffffffffffffffffffffffff1673ffffffffffffffffffffffffffffffffffffffff1673ffffffffffffffffffffffffffffffffffffffff1681526020019081526020016000206040518060600160405280600381526020013373ffffffffffffffffffffffffffffffffffffffff168152602001600360003373ffffffffffffffffffffffffffffffffffffffff1673ffffffffffffffffffffffffffffffffffffffff1681526020019081526020016000206002018054612a5a90615427565b80601f0160208091040260200160405190810160405280929190818152602001828054612a8690615427565b8015612ad35780601f10612aa857610100808354040283529160200191612ad3565b820191906000526020600020905b815481529060010190602001808311612ab657829003601f168201915b505050505081525090806001815401808255809150506001900390600052602060002090600302016000909190919091506000820151816000015560208201518160010160006101000a81548173ffffffffffffffffffffffffffffffffffffffff021916908373ffffffffffffffffffffffffffffffffffffffff1602179055506040820151816002019081612b6a9190615604565b5050505b505b5050565b600080600083815260200190815260200160002060003373ffffffffffffffffffffffffffffffffffffffff1673ffffffffffffffffffffffffffffffffffffffff16815260200190815260200160002060009054906101000a900460ff169050919050565b60086020528160005260406000208181548110612bf657600080fd5b9060005260206000209060030201600091509150508060000154908060010160009054906101000a900473ffffffffffffffffffffffffffffffffffffffff1690806002018054612c4690615427565b80601f0160208091040260200160405190810160405280929190818152602001828054612c7290615427565b8015612cbf5780601f10612c9457610100808354040283529160200191612cbf565b820191906000526020600020905b815481529060010190602001808311612ca257829003601f168201915b5050505050905083565b600360003373ffffffffffffffffffffffffffffffffffffffff1673ffffffffffffffffffffffffffffffffffffffff16815260200190815260200160002060000160009054906101000a900473ffffffffffffffffffffffffffffffffffffffff1673ffffffffffffffffffffffffffffffffffffffff163373ffffffffffffffffffffffffffffffffffffffff1614612d99576040517f08c379a0000000000000000000000000000000000000000000000000000000008152600401612d9090615d18565b60405180910390fd5b8073ffffffffffffffffffffffffffffffffffffffff16600360003373ffffffffffffffffffffffffffffffffffffffff1673ffffffffffffffffffffffffffffffffffffffff16815260200190815260200160002060000160009054906101000a900473ffffffffffffffffffffffffffffffffffffffff1673ffffffffffffffffffffffffffffffffffffffff1603612e69576040517f08c379a0000000000000000000000000000000000000000000000000000000008152600401612e6090615daa565b60405180910390fd5b6000805b600360003373ffffffffffffffffffffffffffffffffffffffff1673ffffffffffffffffffffffffffffffffffffffff16815260200190815260200160002060010180549050811015612f87578273ffffffffffffffffffffffffffffffffffffffff16600360003373ffffffffffffffffffffffffffffffffffffffff1673ffffffffffffffffffffffffffffffffffffffff1681526020019081526020016000206001018281548110612f2557612f24615776565b5b9060005260206000200160009054906101000a900473ffffffffffffffffffffffffffffffffffffffff1673ffffffffffffffffffffffffffffffffffffffff1603612f745760019150612f87565b8080612f7f9061572e565b915050612e6d565b508015612fc9576040517f08c379a0000000000000000000000000000000000000000000000000000000008152600401612fc090615e16565b60405180910390fd5b600360003373ffffffffffffffffffffffffffffffffffffffff1673ffffffffffffffffffffffffffffffffffffffff168152602001908152602001600020600101829080600181540180825580915050600190039060005260206000200160009091909190916101000a81548173ffffffffffffffffffffffffffffffffffffffff021916908373ffffffffffffffffffffffffffffffffffffffff1602179055507f96dd2f9b07cc8115f4cc97114bfcebe7db8cb9173685fe95972cb67626eae5f48260405161309b9190615e8b565b60405180910390a15050565b600073ffffffffffffffffffffffffffffffffffffffff16600360008573ffffffffffffffffffffffffffffffffffffffff1673ffffffffffffffffffffffffffffffffffffffff16815260200190815260200160002060000160009054906101000a900473ffffffffffffffffffffffffffffffffffffffff1673ffffffffffffffffffffffffffffffffffffffff1614613178576040517f08c379a000000000000000000000000000000000000000000000000000000000815260040161316f90615ef2565b60405180910390fd5b61318182614245565b156131c1576040517f08c379a00000000000000000000000000000000000000000000000000000000081526004016131b890615f5e565b60405180910390fd5b6040518060c001604052808473ffffffffffffffffffffffffffffffffffffffff168152602001600067ffffffffffffffff8111156132035761320261475f565b5b6040519080825280602002602001820160405280156132315781602001602082028036833780820191505090505b508152602001838152602001828152602001600081526020016000815250600360008573ffffffffffffffffffffffffffffffffffffffff1673ffffffffffffffffffffffffffffffffffffffff16815260200190815260200160002060008201518160000160006101000a81548173ffffffffffffffffffffffffffffffffffffffff021916908373ffffffffffffffffffffffffffffffffffffffff16021790555060208201518160010190805190602001906132f19291906143c2565b5060408201518160020190816133079190615604565b50606082015181600301908161331d9190615604565b506080820151816004015560a082015181600501559050506006829080600181540180825580915050600190039060005260206000200160009091909190915090816133699190615604565b507f79f63fcc482f5019b651e9b3762dac1f1cb6321815ef50d5ce709410faa2d39460405160405180910390a1505050565b6000600360003373ffffffffffffffffffffffffffffffffffffffff1673ffffffffffffffffffffffffffffffffffffffff1681526020019081526020016000206004015490506000600360003373ffffffffffffffffffffffffffffffffffffffff1673ffffffffffffffffffffffffffffffffffffffff1681526020019081526020016000206004015411613467576040517f08c379a000000000000000000000000000000000000000000000000000000000815260040161345e90615fca565b60405180910390fd5b3373ffffffffffffffffffffffffffffffffffffffff166108fc829081150290604051600060405180830381858888f193505050501580156134ad573d6000803e3d6000fd5b506000600360003373ffffffffffffffffffffffffffffffffffffffff1673ffffffffffffffffffffffffffffffffffffffff168152602001908152602001600020600401819055507f8a43c4352486ec339f487f64af78ca5cbf06cd47833f073d3baf3a193e5031613382604051613527929190615a35565b60405180910390a150565b6060600860003373ffffffffffffffffffffffffffffffffffffffff1673ffffffffffffffffffffffffffffffffffffffff168152602001908152602001600020805480602002602001604051908101604052809291908181526020016000905b828210156136b75783829060005260206000209060030201604051806060016040529081600082015481526020016001820160009054906101000a900473ffffffffffffffffffffffffffffffffffffffff1673ffffffffffffffffffffffffffffffffffffffff1673ffffffffffffffffffffffffffffffffffffffff16815260200160028201805461362690615427565b80601f016020809104026020016040519081016040528092919081815260200182805461365290615427565b801561369f5780601f106136745761010080835404028352916020019161369f565b820191906000526020600020905b81548152906001019060200180831161368257829003601f168201915b50505050508152505081526020019060010190613593565b50505050905090565b60055481565b6136ce61444c565b600182815481106136e2576136e1615776565b5b906000526020600020906008020160010160009054906101000a900473ffffffffffffffffffffffffffffffffffffffff1673ffffffffffffffffffffffffffffffffffffffff163373ffffffffffffffffffffffffffffffffffffffff1614613bc8576000805b600860006001868154811061376257613761615776565b5b906000526020600020906008020160010160009054906101000a900473ffffffffffffffffffffffffffffffffffffffff1673ffffffffffffffffffffffffffffffffffffffff1673ffffffffffffffffffffffffffffffffffffffff168152602001908152602001600020805490508110156139aa573373ffffffffffffffffffffffffffffffffffffffff16600860006001878154811061380857613807615776565b5b906000526020600020906008020160010160009054906101000a900473ffffffffffffffffffffffffffffffffffffffff1673ffffffffffffffffffffffffffffffffffffffff1673ffffffffffffffffffffffffffffffffffffffff168152602001908152602001600020828154811061388657613885615776565b5b906000526020600020906003020160010160009054906101000a900473ffffffffffffffffffffffffffffffffffffffff1673ffffffffffffffffffffffffffffffffffffffff160361399757600160086000600187815481106138ed576138ec615776565b5b906000526020600020906008020160010160009054906101000a900473ffffffffffffffffffffffffffffffffffffffff1673ffffffffffffffffffffffffffffffffffffffff1673ffffffffffffffffffffffffffffffffffffffff168152602001908152602001600020828154811061396b5761396a615776565b5b9060005260206000209060030201600001600082825461398b9190615a01565b92505081905550600191505b80806139a29061572e565b91505061374a565b5060008103613bc65760086000600185815481106139cb576139ca615776565b5b906000526020600020906008020160010160009054906101000a900473ffffffffffffffffffffffffffffffffffffffff1673ffffffffffffffffffffffffffffffffffffffff1673ffffffffffffffffffffffffffffffffffffffff1681526020019081526020016000206040518060600160405280600181526020013373ffffffffffffffffffffffffffffffffffffffff168152602001600360003373ffffffffffffffffffffffffffffffffffffffff1673ffffffffffffffffffffffffffffffffffffffff1681526020019081526020016000206002018054613ab290615427565b80601f0160208091040260200160405190810160405280929190818152602001828054613ade90615427565b8015613b2b5780601f10613b0057610100808354040283529160200191613b2b565b820191906000526020600020905b815481529060010190602001808311613b0e57829003601f168201915b505050505081525090806001815401808255809150506001900390600052602060002090600302016000909190919091506000820151816000015560208201518160010160006101000a81548173ffffffffffffffffffffffffffffffffffffffff021916908373ffffffffffffffffffffffffffffffffffffffff1602179055506040820151816002019081613bc29190615604565b5050505b505b60008060005b600280549050811015613ca2573373ffffffffffffffffffffffffffffffffffffffff1660028281548110613c0657613c05615776565b5b906000526020600020906005020160010160009054906101000a900473ffffffffffffffffffffffffffffffffffffffff1673ffffffffffffffffffffffffffffffffffffffff160315613c8f57600060028281548110613c6a57613c69615776565b5b9060005260206000209060050201600401541115613c8e5780925060019150613ca2565b5b8080613c9a9061572e565b915050613bce565b5080613ce3576040517f08c379a0000000000000000000000000000000000000000000000000000000008152600401613cda90616036565b60405180910390fd5b6000655af3107a400090506000600282613cfd91906159d0565b90506000600583613d0e91906159d0565b90506000818385613d1f9190616056565b613d299190616056565b905082600360008b73ffffffffffffffffffffffffffffffffffffffff1673ffffffffffffffffffffffffffffffffffffffff1681526020019081526020016000206004016000828254613d7d9190615a01565b9250508190555081600360008b73ffffffffffffffffffffffffffffffffffffffff1673ffffffffffffffffffffffffffffffffffffffff1681526020019081526020016000206005016000828254613dd69190615a01565b9250508190555080600754613deb9190615a01565b600781905550818385613dfe9190616056565b613e089190616056565b600360003073ffffffffffffffffffffffffffffffffffffffff1673ffffffffffffffffffffffffffffffffffffffff1681526020019081526020016000206004016000828254613e599190615a01565b9250508190555060028681548110613e7457613e73615776565b5b90600052602060002090600502016004016000815480929190613e969061608a565b91905055507ff99eb597b135d15da7fb2131fe0be5d42c4a11aad684a410bf32fa94cfd8410460028781548110613ed057613ecf615776565b5b9060005260206000209060050201604051613eeb9190616240565b60405180910390a160028681548110613f0757613f06615776565b5b90600052602060002090600502016040518060a0016040529081600082015481526020016001820160009054906101000a900473ffffffffffffffffffffffffffffffffffffffff1673ffffffffffffffffffffffffffffffffffffffff1673ffffffffffffffffffffffffffffffffffffffff168152602001600282018054613f9090615427565b80601f0160208091040260200160405190810160405280929190818152602001828054613fbc90615427565b80156140095780601f10613fde57610100808354040283529160200191614009565b820191906000526020600020905b815481529060010190602001808311613fec57829003601f168201915b5050505050815260200160038201805461402290615427565b80601f016020809104026020016040519081016040528092919081815260200182805461404e90615427565b801561409b5780601f106140705761010080835404028352916020019161409b565b820191906000526020600020905b81548152906001019060200180831161407e57829003601f168201915b50505050508152602001600482015481525050965050505050505092915050565b6001805490508110614103576040517f08c379a00000000000000000000000000000000000000000000000000000000081526004016140fa90615b16565b60405180910390fd5b60008082815260200190815260200160002060003373ffffffffffffffffffffffffffffffffffffffff1673ffffffffffffffffffffffffffffffffffffffff16815260200190815260200160002060009054906101000a900460ff1661419f576040517f08c379a0000000000000000000000000000000000000000000000000000000008152600401614196906162ae565b60405180910390fd5b600181815481106141b3576141b2615776565b5b906000526020600020906008020160060160008154809291906141d59061608a565b9190505550600080600083815260200190815260200160002060003373ffffffffffffffffffffffffffffffffffffffff1673ffffffffffffffffffffffffffffffffffffffff16815260200190815260200160002060006101000a81548160ff02191690831515021790555050565b600080600090505b6006805490508110156142b75782805190602001206006828154811061427657614275615776565b5b9060005260206000200160405161428d9190616371565b6040518091039020036142a45760019150506142bd565b80806142af9061572e565b91505061424d565b50600090505b919050565b82805482825590600052602060002090810192821561430a579160200282015b828111156143095782518290816142f99190615604565b50916020019190600101906142e2565b5b5090506143179190614491565b5090565b60405180610100016040528060008152602001600073ffffffffffffffffffffffffffffffffffffffff1681526020016060815260200160608152602001606081526020016060815260200160008152602001606081525090565b6040518060c00160405280600073ffffffffffffffffffffffffffffffffffffffff16815260200160608152602001606081526020016060815260200160008152602001600081525090565b82805482825590600052602060002090810192821561443b579160200282015b8281111561443a5782518260006101000a81548173ffffffffffffffffffffffffffffffffffffffff021916908373ffffffffffffffffffffffffffffffffffffffff160217905550916020019190600101906143e2565b5b50905061444891906144b5565b5090565b6040518060a0016040528060008152602001600073ffffffffffffffffffffffffffffffffffffffff1681526020016060815260200160608152602001600081525090565b5b808211156144b157600081816144a891906144d2565b50600101614492565b5090565b5b808211156144ce5760008160009055506001016144b6565b5090565b5080546144de90615427565b6000825580601f106144f0575061450f565b601f01602090049060005260206000209081019061450e91906144b5565b5b50565b6000604051905090565b600080fd5b600080fd5b6000819050919050565b61453981614526565b811461454457600080fd5b50565b60008135905061455681614530565b92915050565b6000602082840312156145725761457161451c565b5b600061458084828501614547565b91505092915050565b61459281614526565b82525050565b600073ffffffffffffffffffffffffffffffffffffffff82169050919050565b60006145c382614598565b9050919050565b6145d3816145b8565b82525050565b600081519050919050565b600082825260208201905092915050565b60005b838110156146135780820151818401526020810190506145f8565b60008484015250505050565b6000601f19601f8301169050919050565b600061463b826145d9565b61464581856145e4565b93506146558185602086016145f5565b61465e8161461f565b840191505092915050565b600060e08201905061467e600083018a614589565b61468b60208301896145ca565b818103604083015261469d8188614630565b905081810360608301526146b18187614630565b905081810360808301526146c58186614630565b905081810360a08301526146d98185614630565b90506146e860c0830184614589565b98975050505050505050565b600060a0820190506147096000830188614589565b61471660208301876145ca565b81810360408301526147288186614630565b9050818103606083015261473c8185614630565b905061474b6080830184614589565b9695505050505050565b600080fd5b600080fd5b7f4e487b7100000000000000000000000000000000000000000000000000000000600052604160045260246000fd5b6147978261461f565b810181811067ffffffffffffffff821117156147b6576147b561475f565b5b80604052505050565b60006147c9614512565b90506147d5828261478e565b919050565b600067ffffffffffffffff8211156147f5576147f461475f565b5b6147fe8261461f565b9050602081019050919050565b82818337600083830152505050565b600061482d614828846147da565b6147bf565b9050828152602081018484840111156148495761484861475a565b5b61485484828561480b565b509392505050565b600082601f83011261487157614870614755565b5b813561488184826020860161481a565b91505092915050565b6000806000606084860312156148a3576148a261451c565b5b600084013567ffffffffffffffff8111156148c1576148c0614521565b5b6148cd8682870161485c565b935050602084013567ffffffffffffffff8111156148ee576148ed614521565b5b6148fa8682870161485c565b925050604084013567ffffffffffffffff81111561491b5761491a614521565b5b6149278682870161485c565b9150509250925092565b61493a81614526565b82525050565b614949816145b8565b82525050565b600082825260208201905092915050565b600061496b826145d9565b614975818561494f565b93506149858185602086016145f5565b61498e8161461f565b840191505092915050565b600081519050919050565b600082825260208201905092915050565b6000819050602082019050919050565b60006149d18383614960565b905092915050565b6000602082019050919050565b60006149f182614999565b6149fb81856149a4565b935083602082028501614a0d856149b5565b8060005b85811015614a495784840389528151614a2a85826149c5565b9450614a35836149d9565b925060208a01995050600181019050614a11565b50829750879550505050505092915050565b600061010083016000830151614a746000860182614931565b506020830151614a876020860182614940565b5060408301518482036040860152614a9f8282614960565b91505060608301518482036060860152614ab98282614960565b91505060808301518482036080860152614ad38282614960565b91505060a083015184820360a0860152614aed8282614960565b91505060c0830151614b0260c0860182614931565b5060e083015184820360e0860152614b1a82826149e6565b9150508091505092915050565b60006020820190508181036000830152614b418184614a5b565b905092915050565b600081519050919050565b600082825260208201905092915050565b6000819050602082019050919050565b600061010083016000830151614b8e6000860182614931565b506020830151614ba16020860182614940565b5060408301518482036040860152614bb98282614960565b91505060608301518482036060860152614bd38282614960565b91505060808301518482036080860152614bed8282614960565b91505060a083015184820360a0860152614c078282614960565b91505060c0830151614c1c60c0860182614931565b5060e083015184820360e0860152614c3482826149e6565b9150508091505092915050565b6000614c4d8383614b75565b905092915050565b6000602082019050919050565b6000614c6d82614b49565b614c778185614b54565b935083602082028501614c8985614b65565b8060005b85811015614cc55784840389528151614ca68582614c41565b9450614cb183614c55565b925060208a01995050600181019050614c8d565b50829750879550505050505092915050565b60006020820190508181036000830152614cf18184614c62565b905092915050565b614d02816145b8565b8114614d0d57600080fd5b50565b600081359050614d1f81614cf9565b92915050565b60008060408385031215614d3c57614d3b61451c565b5b6000614d4a85828601614547565b9250506020614d5b85828601614d10565b9150509250929050565b60008115159050919050565b614d7a81614d65565b82525050565b6000602082019050614d956000830184614d71565b92915050565b6000602082019050614db06000830184614589565b92915050565b600060208284031215614dcc57614dcb61451c565b5b6000614dda84828501614d10565b91505092915050565b6000614dee82614598565b9050919050565b614dfe81614de3565b82525050565b600060a082019050614e196000830188614df5565b8181036020830152614e2b8187614630565b90508181036040830152614e3f8186614630565b9050614e4e6060830185614589565b614e5b6080830184614589565b9695505050505050565b614e6e81614de3565b82525050565b600081519050919050565b600082825260208201905092915050565b6000819050602082019050919050565b6000614eac8383614e65565b60208301905092915050565b6000602082019050919050565b6000614ed082614e74565b614eda8185614e7f565b9350614ee583614e90565b8060005b83811015614f16578151614efd8882614ea0565b9750614f0883614eb8565b925050600181019050614ee9565b5085935050505092915050565b600060c083016000830151614f3b6000860182614e65565b5060208301518482036020860152614f538282614ec5565b91505060408301518482036040860152614f6d8282614960565b91505060608301518482036060860152614f878282614960565b9150506080830151614f9c6080860182614931565b5060a0830151614faf60a0860182614931565b508091505092915050565b60006020820190508181036000830152614fd48184614f23565b905092915050565b600080600060608486031215614ff557614ff461451c565b5b600084013567ffffffffffffffff81111561501357615012614521565b5b61501f8682870161485c565b935050602061503086828701614547565b925050604084013567ffffffffffffffff81111561505157615050614521565b5b61505d8682870161485c565b9150509250925092565b6000806040838503121561507e5761507d61451c565b5b600061508c85828601614547565b925050602083013567ffffffffffffffff8111156150ad576150ac614521565b5b6150b98582860161485c565b9150509250929050565b600080604083850312156150da576150d961451c565b5b60006150e885828601614d10565b92505060206150f985828601614547565b9150509250929050565b60006060820190506151186000830186614589565b61512560208301856145ca565b81810360408301526151378184614630565b9050949350505050565b61514a81614de3565b811461515557600080fd5b50565b60008135905061516781615141565b92915050565b6000602082840312156151835761518261451c565b5b600061519184828501615158565b91505092915050565b6000806000606084860312156151b3576151b261451c565b5b60006151c186828701615158565b935050602084013567ffffffffffffffff8111156151e2576151e1614521565b5b6151ee8682870161485c565b925050604084013567ffffffffffffffff81111561520f5761520e614521565b5b61521b8682870161485c565b9150509250925092565b600081519050919050565b600082825260208201905092915050565b6000819050602082019050919050565b60006060830160008301516152696000860182614931565b50602083015161527c6020860182614940565b50604083015184820360408601526152948282614960565b9150508091505092915050565b60006152ad8383615251565b905092915050565b6000602082019050919050565b60006152cd82615225565b6152d78185615230565b9350836020820285016152e985615241565b8060005b85811015615325578484038952815161530685826152a1565b9450615311836152b5565b925060208a019950506001810190506152ed565b50829750879550505050505092915050565b6000602082019050818103600083015261535181846152c2565b905092915050565b600060a0830160008301516153716000860182614931565b5060208301516153846020860182614940565b506040830151848203604086015261539c8282614960565b915050606083015184820360608601526153b68282614960565b91505060808301516153cb6080860182614931565b508091505092915050565b600060208201905081810360008301526153f08184615359565b905092915050565b7f4e487b7100000000000000000000000000000000000000000000000000000000600052602260045260246000fd5b6000600282049050600182168061543f57607f821691505b602082108103615452576154516153f8565b5b50919050565b60008190508160005260206000209050919050565b60006020601f8301049050919050565b600082821b905092915050565b6000600883026154ba7fffffffffffffffffffffffffffffffffffffffffffffffffffffffffffffffff8261547d565b6154c4868361547d565b95508019841693508086168417925050509392505050565b6000819050919050565b60006155016154fc6154f784614526565b6154dc565b614526565b9050919050565b6000819050919050565b61551b836154e6565b61552f61552782615508565b84845461548a565b825550505050565b600090565b615544615537565b61554f818484615512565b505050565b5b818110156155735761556860008261553c565b600181019050615555565b5050565b601f8211156155b85761558981615458565b6155928461546d565b810160208510156155a1578190505b6155b56155ad8561546d565b830182615554565b50505b505050565b600082821c905092915050565b60006155db600019846008026155bd565b1980831691505092915050565b60006155f483836155ca565b9150826002028217905092915050565b61560d826145d9565b67ffffffffffffffff8111156156265761562561475f565b5b6156308254615427565b61563b828285615577565b600060209050601f83116001811461566e576000841561565c578287015190505b61566685826155e8565b8655506156ce565b601f19841661567c86615458565b60005b828110156156a45784890151825560018201915060208501945060208101905061567f565b868310156156c157848901516156bd601f8916826155ca565b8355505b6001600288020188555050505b505050505050565b60006040820190506156eb6000830185614589565b6156f860208301846145ca565b9392505050565b7f4e487b7100000000000000000000000000000000000000000000000000000000600052601160045260246000fd5b600061573982614526565b91507fffffffffffffffffffffffffffffffffffffffffffffffffffffffffffffffff820361576b5761576a6156ff565b5b600182019050919050565b7f4e487b7100000000000000000000000000000000000000000000000000000000600052603260045260246000fd5b7f4f6e6c792074686520636f6e7472616374206f776e65722063616e207769746860008201527f647261772066756e647300000000000000000000000000000000000000000000602082015250565b6000615801602a836145e4565b915061580c826157a5565b604082019050919050565b60006020820190508181036000830152615830816157f4565b9050919050565b7f4e6f206f776e65722066756e647320617661696c61626c6520666f722077697460008201527f6864726177616c00000000000000000000000000000000000000000000000000602082015250565b60006158936027836145e4565b915061589e82615837565b604082019050919050565b600060208201905081810360008301526158c281615886565b9050919050565b7f4e6f206c6f79616c7479207265776172647320746f2064697374726962757465600082015250565b60006158ff6020836145e4565b915061590a826158c9565b602082019050919050565b6000602082019050818103600083015261592e816158f2565b9050919050565b7f4e6f204c6f79616c732041646465640000000000000000000000000000000000600082015250565b600061596b600f836145e4565b915061597682615935565b602082019050919050565b6000602082019050818103600083015261599a8161595e565b9050919050565b7f4e487b7100000000000000000000000000000000000000000000000000000000600052601260045260246000fd5b60006159db82614526565b91506159e683614526565b9250826159f6576159f56159a1565b5b828204905092915050565b6000615a0c82614526565b9150615a1783614526565b9250828201905080821115615a2f57615a2e6156ff565b5b92915050565b6000604082019050615a4a60008301856145ca565b615a576020830184614589565b9392505050565b7f4163636f756e7420646f65736e74206578697374000000000000000000000000600082015250565b6000615a946014836145e4565b9150615a9f82615a5e565b602082019050919050565b60006020820190508181036000830152615ac381615a87565b9050919050565b7f506f737420646f6573206e6f7420657869737400000000000000000000000000600082015250565b6000615b006013836145e4565b9150615b0b82615aca565b602082019050919050565b60006020820190508181036000830152615b2f81615af3565b9050919050565b7f416c7265616479206c696b656400000000000000000000000000000000000000600082015250565b6000615b6c600d836145e4565b9150615b7782615b36565b602082019050919050565b60006020820190508181036000830152615b9b81615b5f565b9050919050565b6000615bad82614526565b9150615bb883614526565b9250828202615bc681614526565b91508282048414831517615bdd57615bdc6156ff565b5b5092915050565b7f496e636f72726563742045746865722076616c756520666f722061647665727460008201527f6973656d656e7400000000000000000000000000000000000000000000000000602082015250565b6000615c406027836145e4565b9150615c4b82615be4565b604082019050919050565b60006020820190508181036000830152615c6f81615c33565b9050919050565b6000604082019050615c8b6000830185614589565b8181036020830152615c9d8184614630565b90509392505050565b7f4f6e6c79206163636f756e74206f776e65722063616e20616464206c6f79616c60008201527f20666f6c6c6f7765727300000000000000000000000000000000000000000000602082015250565b6000615d02602a836145e4565b9150615d0d82615ca6565b604082019050919050565b60006020820190508181036000830152615d3181615cf5565b9050919050565b7f43616e6e6f742061646420796f757273656c66206173206c6f79616c20666f6c60008201527f6c6f776572000000000000000000000000000000000000000000000000000000602082015250565b6000615d946025836145e4565b9150615d9f82615d38565b604082019050919050565b60006020820190508181036000830152615dc381615d87565b9050919050565b7f4c6f79616c206164647265737320616c72656164792065786973747300000000600082015250565b6000615e00601c836145e4565b9150615e0b82615dca565b602082019050919050565b60006020820190508181036000830152615e2f81615df3565b9050919050565b6000615e51615e4c615e4784614598565b6154dc565b614598565b9050919050565b6000615e6382615e36565b9050919050565b6000615e7582615e58565b9050919050565b615e8581615e6a565b82525050565b6000602082019050615ea06000830184615e7c565b92915050565b7f4163636f756e7420616c72656164792065786973747300000000000000000000600082015250565b6000615edc6016836145e4565b9150615ee782615ea6565b602082019050919050565b60006020820190508181036000830152615f0b81615ecf565b9050919050565b7f557365726e616d6520616c726561647920657869737473000000000000000000600082015250565b6000615f486017836145e4565b9150615f5382615f12565b602082019050919050565b60006020820190508181036000830152615f7781615f3b565b9050919050565b7f4e6f207265776172647320746f20776974686472617700000000000000000000600082015250565b6000615fb46016836145e4565b9150615fbf82615f7e565b602082019050919050565b60006020820190508181036000830152615fe381615fa7565b9050919050565b7f4e6f204164730000000000000000000000000000000000000000000000000000600082015250565b60006160206006836145e4565b915061602b82615fea565b602082019050919050565b6000602082019050818103600083015261604f81616013565b9050919050565b600061606182614526565b915061606c83614526565b9250828203905081811115616084576160836156ff565b5b92915050565b600061609582614526565b9150600082036160a8576160a76156ff565b5b600182039050919050565b60008160001c9050919050565b6000819050919050565b60006160dd6160d8836160b3565b6160c0565b9050919050565b600073ffffffffffffffffffffffffffffffffffffffff82169050919050565b6000616117616112836160b3565b6160e4565b9050919050565b6000815461612b81615427565b616135818661494f565b94506001821660008114616150576001811461616657616199565b60ff198316865281151560200286019350616199565b61616f85615458565b60005b8381101561619157815481890152600182019150602081019050616172565b808801955050505b50505092915050565b600060a0830160008084015490506161b9816160ca565b6161c66000870182614931565b50600184015490506161d781616104565b6161e46020870182614940565b506002840185830360408701526161fb838261611e565b925050600384018583036060870152616214838261611e565b92505060048401549050616227816160ca565b6162346080870182614931565b50819250505092915050565b6000602082019050818103600083015261625a81846161a2565b905092915050565b7f43616e6e6f7420756e6c696b6500000000000000000000000000000000000000600082015250565b6000616298600d836145e4565b91506162a382616262565b602082019050919050565b600060208201905081810360008301526162c78161628b565b9050919050565b600081905092915050565b60008190508160005260206000209050919050565b600081546162fb81615427565b61630581866162ce565b94506001821660008114616320576001811461633557616368565b60ff1983168652811515820286019350616368565b61633e856162d9565b60005b8381101561636057815481890152600182019150602081019050616341565b838801955050505b50505092915050565b600061637d82846162ee565b91508190509291505056fea26469706673582212208a83e512f61d2ed6da2d951c216b85ba73f137405a782e27b72bbc8c6acddc4f64736f6c63430008130033",
  "linkReferences": {},
  "deployedLinkReferences": {}
}