{
  "_format": "hh-sol-artifact-1",
  "contractName": "Social",
  "sourceName": "contracts/Social.sol",
  "abi": [
    {
      "anonymous": false,
      "inputs": [],
      "name": "AccountAdded",
      "type": "event"
    },
    {
      "anonymous": false,
      "inputs": [
        {
          "indexed": false,
          "internalType": "uint256",
          "name": "advertisementId",
          "type": "uint256"
        },
        {
          "indexed": false,
          "internalType": "address",
          "name": "author",
          "type": "address"
        }
      ],
      "name": "AdvertisementAdded",
      "type": "event"
    },
    {
      "anonymous": false,
      "inputs": [
        {
          "components": [
            {
              "internalType": "uint256",
              "name": "advertisementId",
              "type": "uint256"
            },
            {
              "internalType": "address",
              "name": "author",
              "type": "address"
            },
            {
              "internalType": "string",
              "name": "content",
              "type": "string"
            },
            {
              "internalType": "string",
              "name": "imageUrl",
              "type": "string"
            },
            {
              "internalType": "uint256",
              "name": "count",
              "type": "uint256"
            }
          ],
          "indexed": false,
          "internalType": "struct Social.Advertisement",
          "name": "Ad",
          "type": "tuple"
        }
      ],
      "name": "AdvertisementRendered",
      "type": "event"
    },
    {
      "anonymous": false,
      "inputs": [],
      "name": "AllFundsWithdrawn",
      "type": "event"
    },
    {
      "anonymous": false,
      "inputs": [
        {
          "indexed": false,
          "internalType": "uint256",
          "name": "postId",
          "type": "uint256"
        },
        {
          "indexed": false,
          "internalType": "string",
          "name": "comment",
          "type": "string"
        }
      ],
      "name": "CommentsAdded",
      "type": "event"
    },
    {
      "anonymous": false,
      "inputs": [
        {
          "indexed": false,
          "internalType": "address",
          "name": "author",
          "type": "address"
        }
      ],
      "name": "LoyalAdded",
      "type": "event"
    },
    {
      "anonymous": false,
      "inputs": [
        {
          "indexed": false,
          "internalType": "address",
          "name": "account",
          "type": "address"
        },
        {
          "indexed": false,
          "internalType": "uint256",
          "name": "amount",
          "type": "uint256"
        }
      ],
      "name": "LoyaltyRewardsDistributed",
      "type": "event"
    },
    {
      "anonymous": false,
      "inputs": [
        {
          "indexed": false,
          "internalType": "uint256",
          "name": "postId",
          "type": "uint256"
        },
        {
          "indexed": false,
          "internalType": "address",
          "name": "author",
          "type": "address"
        }
      ],
      "name": "PostAdded",
      "type": "event"
    },
    {
      "anonymous": false,
      "inputs": [
        {
          "indexed": false,
          "internalType": "uint256",
          "name": "postId",
          "type": "uint256"
        },
        {
          "indexed": false,
          "internalType": "address",
          "name": "likedBy",
          "type": "address"
        }
      ],
      "name": "PostLiked",
      "type": "event"
    },
    {
      "anonymous": false,
      "inputs": [
        {
          "indexed": false,
          "internalType": "address",
          "name": "account",
          "type": "address"
        },
        {
          "indexed": false,
          "internalType": "uint256",
          "name": "amount",
          "type": "uint256"
        }
      ],
      "name": "RewardsWithdrawn",
      "type": "event"
    },
    {
      "inputs": [
        {
          "internalType": "address",
          "name": "",
          "type": "address"
        }
      ],
      "name": "accounts",
      "outputs": [
        {
          "internalType": "address payable",
          "name": "author",
          "type": "address"
        },
        {
          "internalType": "string",
          "name": "username",
          "type": "string"
        },
        {
          "internalType": "string",
          "name": "avatar",
          "type": "string"
        },
        {
          "internalType": "uint256",
          "name": "rewards",
          "type": "uint256"
        },
        {
          "internalType": "uint256",
          "name": "loyaltyRewards",
          "type": "uint256"
        }
      ],
      "stateMutability": "view",
      "type": "function"
    },
    {
      "inputs": [
        {
          "internalType": "address payable",
          "name": "_author",
          "type": "address"
        },
        {
          "internalType": "string",
          "name": "_username",
          "type": "string"
        },
        {
          "internalType": "string",
          "name": "_avatar",
          "type": "string"
        }
      ],
      "name": "addAccount",
      "outputs": [],
      "stateMutability": "nonpayable",
      "type": "function"
    },
    {
      "inputs": [
        {
          "internalType": "string",
          "name": "_content",
          "type": "string"
        },
        {
          "internalType": "uint256",
          "name": "_count",
          "type": "uint256"
        },
        {
          "internalType": "string",
          "name": "_imageUrl",
          "type": "string"
        }
      ],
      "name": "addAdvertisement",
      "outputs": [],
      "stateMutability": "payable",
      "type": "function"
    },
    {
      "inputs": [
        {
          "internalType": "uint256",
          "name": "_postId",
          "type": "uint256"
        },
        {
          "internalType": "string",
          "name": "_content",
          "type": "string"
        }
      ],
      "name": "addComments",
      "outputs": [],
      "stateMutability": "nonpayable",
      "type": "function"
    },
    {
      "inputs": [
        {
          "internalType": "address payable",
          "name": "_loyalAddress",
          "type": "address"
        }
      ],
      "name": "addLoyal",
      "outputs": [],
      "stateMutability": "nonpayable",
      "type": "function"
    },
    {
      "inputs": [
        {
          "internalType": "string",
          "name": "_content",
          "type": "string"
        },
        {
          "internalType": "string",
          "name": "_headline",
          "type": "string"
        },
        {
          "internalType": "string",
          "name": "_imageUrl",
          "type": "string"
        }
      ],
      "name": "addPost",
      "outputs": [],
      "stateMutability": "nonpayable",
      "type": "function"
    },
    {
      "inputs": [
        {
          "internalType": "uint256",
          "name": "",
          "type": "uint256"
        }
      ],
      "name": "ads",
      "outputs": [
        {
          "internalType": "uint256",
          "name": "advertisementId",
          "type": "uint256"
        },
        {
          "internalType": "address",
          "name": "author",
          "type": "address"
        },
        {
          "internalType": "string",
          "name": "content",
          "type": "string"
        },
        {
          "internalType": "string",
          "name": "imageUrl",
          "type": "string"
        },
        {
          "internalType": "uint256",
          "name": "count",
          "type": "uint256"
        }
      ],
      "stateMutability": "view",
      "type": "function"
    },
    {
      "inputs": [],
      "name": "distributeLoyaltyRewards",
      "outputs": [],
      "stateMutability": "nonpayable",
      "type": "function"
    },
    {
      "inputs": [],
      "name": "getInteractions",
      "outputs": [
        {
          "components": [
            {
              "internalType": "uint256",
              "name": "score",
              "type": "uint256"
            },
            {
              "internalType": "address",
              "name": "user",
              "type": "address"
            }
          ],
          "internalType": "struct Social.interactionObject[]",
          "name": "",
          "type": "tuple[]"
        }
      ],
      "stateMutability": "view",
      "type": "function"
    },
    {
      "inputs": [
        {
          "internalType": "uint256",
          "name": "_postid",
          "type": "uint256"
        }
      ],
      "name": "getPost",
      "outputs": [
        {
          "components": [
            {
              "internalType": "uint256",
              "name": "postId",
              "type": "uint256"
            },
            {
              "internalType": "address",
              "name": "author",
              "type": "address"
            },
            {
              "internalType": "string",
              "name": "username",
              "type": "string"
            },
            {
              "internalType": "string",
              "name": "headline",
              "type": "string"
            },
            {
              "internalType": "string",
              "name": "content",
              "type": "string"
            },
            {
              "internalType": "string",
              "name": "imageUrl",
              "type": "string"
            },
            {
              "internalType": "uint256",
              "name": "likes",
              "type": "uint256"
            },
            {
              "internalType": "string[]",
              "name": "comments",
              "type": "string[]"
            }
          ],
          "internalType": "struct Social.Post",
          "name": "",
          "type": "tuple"
        }
      ],
      "stateMutability": "view",
      "type": "function"
    },
    {
      "inputs": [],
      "name": "getPosts",
      "outputs": [
        {
          "components": [
            {
              "internalType": "uint256",
              "name": "postId",
              "type": "uint256"
            },
            {
              "internalType": "address",
              "name": "author",
              "type": "address"
            },
            {
              "internalType": "string",
              "name": "username",
              "type": "string"
            },
            {
              "internalType": "string",
              "name": "headline",
              "type": "string"
            },
            {
              "internalType": "string",
              "name": "content",
              "type": "string"
            },
            {
              "internalType": "string",
              "name": "imageUrl",
              "type": "string"
            },
            {
              "internalType": "uint256",
              "name": "likes",
              "type": "uint256"
            },
            {
              "internalType": "string[]",
              "name": "comments",
              "type": "string[]"
            }
          ],
          "internalType": "struct Social.Post[]",
          "name": "",
          "type": "tuple[]"
        }
      ],
      "stateMutability": "view",
      "type": "function"
    },
    {
      "inputs": [
        {
          "internalType": "address",
          "name": "acc_id",
          "type": "address"
        }
      ],
      "name": "getUser",
      "outputs": [
        {
          "components": [
            {
              "internalType": "address payable",
              "name": "author",
              "type": "address"
            },
            {
              "internalType": "address payable[]",
              "name": "loyalAddress",
              "type": "address[]"
            },
            {
              "internalType": "string",
              "name": "username",
              "type": "string"
            },
            {
              "internalType": "string",
              "name": "avatar",
              "type": "string"
            },
            {
              "internalType": "uint256",
              "name": "rewards",
              "type": "uint256"
            },
            {
              "internalType": "uint256",
              "name": "loyaltyRewards",
              "type": "uint256"
            }
          ],
          "internalType": "struct Social.Account",
          "name": "",
          "type": "tuple"
        }
      ],
      "stateMutability": "view",
      "type": "function"
    },
    {
      "inputs": [
        {
          "internalType": "address",
          "name": "",
          "type": "address"
        },
        {
          "internalType": "uint256",
          "name": "",
          "type": "uint256"
        }
      ],
      "name": "interactions",
      "outputs": [
        {
          "internalType": "uint256",
          "name": "score",
          "type": "uint256"
        },
        {
          "internalType": "address",
          "name": "user",
          "type": "address"
        }
      ],
      "stateMutability": "view",
      "type": "function"
    },
    {
      "inputs": [
        {
          "internalType": "uint256",
          "name": "_postId",
          "type": "uint256"
        }
      ],
      "name": "isLiked",
      "outputs": [
        {
          "internalType": "bool",
          "name": "",
          "type": "bool"
        }
      ],
      "stateMutability": "view",
      "type": "function"
    },
    {
      "inputs": [
        {
          "internalType": "uint256",
          "name": "_postId",
          "type": "uint256"
        }
      ],
      "name": "likePost",
      "outputs": [],
      "stateMutability": "nonpayable",
      "type": "function"
    },
    {
      "inputs": [
        {
          "internalType": "uint256",
          "name": "",
          "type": "uint256"
        },
        {
          "internalType": "address",
          "name": "",
          "type": "address"
        }
      ],
      "name": "likesMapping",
      "outputs": [
        {
          "internalType": "bool",
          "name": "",
          "type": "bool"
        }
      ],
      "stateMutability": "view",
      "type": "function"
    },
    {
      "inputs": [],
      "name": "nextAdvertisementId",
      "outputs": [
        {
          "internalType": "uint256",
          "name": "",
          "type": "uint256"
        }
      ],
      "stateMutability": "view",
      "type": "function"
    },
    {
      "inputs": [],
      "name": "nextPostId",
      "outputs": [
        {
          "internalType": "uint256",
          "name": "",
          "type": "uint256"
        }
      ],
      "stateMutability": "view",
      "type": "function"
    },
    {
      "inputs": [
        {
          "internalType": "uint256",
          "name": "",
          "type": "uint256"
        }
      ],
      "name": "posts",
      "outputs": [
        {
          "internalType": "uint256",
          "name": "postId",
          "type": "uint256"
        },
        {
          "internalType": "address",
          "name": "author",
          "type": "address"
        },
        {
          "internalType": "string",
          "name": "username",
          "type": "string"
        },
        {
          "internalType": "string",
          "name": "headline",
          "type": "string"
        },
        {
          "internalType": "string",
          "name": "content",
          "type": "string"
        },
        {
          "internalType": "string",
          "name": "imageUrl",
          "type": "string"
        },
        {
          "internalType": "uint256",
          "name": "likes",
          "type": "uint256"
        }
      ],
      "stateMutability": "view",
      "type": "function"
    },
    {
      "inputs": [
        {
          "internalType": "address",
          "name": "_recipientId",
          "type": "address"
        },
        {
          "internalType": "uint256",
          "name": "_postId",
          "type": "uint256"
        }
      ],
      "name": "renderAds",
      "outputs": [
        {
          "components": [
            {
              "internalType": "uint256",
              "name": "advertisementId",
              "type": "uint256"
            },
            {
              "internalType": "address",
              "name": "author",
              "type": "address"
            },
            {
              "internalType": "string",
              "name": "content",
              "type": "string"
            },
            {
              "internalType": "string",
              "name": "imageUrl",
              "type": "string"
            },
            {
              "internalType": "uint256",
              "name": "count",
              "type": "uint256"
            }
          ],
          "internalType": "struct Social.Advertisement",
          "name": "",
          "type": "tuple"
        }
      ],
      "stateMutability": "nonpayable",
      "type": "function"
    },
    {
      "inputs": [
        {
          "internalType": "uint256",
          "name": "_postId",
          "type": "uint256"
        }
      ],
      "name": "unlikePost",
      "outputs": [],
      "stateMutability": "nonpayable",
      "type": "function"
    },
    {
      "inputs": [],
      "name": "withdrawAllFunds",
      "outputs": [],
      "stateMutability": "nonpayable",
      "type": "function"
    },
    {
      "inputs": [],
      "name": "withdrawRewards",
      "outputs": [],
      "stateMutability": "nonpayable",
      "type": "function"
    }
  ],
  "bytecode": "0x6080604052600060075534801561001557600080fd5b50615f7980620000266000396000f3fe6080604052600436106101405760003560e01c8063725009d3116100b6578063a3de89591161006f578063a3de895914610480578063c7b8981c146104a9578063dbe8c6db146104c0578063de1d5da4146104eb578063f24627df14610516578063fa188de91461055357610140565b8063725009d31461036e57806380fd5638146103975780638e4ccb23146103b35780638f9ee220146103dc5780638fd998e11461041957806396d9811f1461045757610140565b806349649fbf1161010857806349649fbf1461025a5780634b6d49b11461027157806355015d7b146102885780635c09bd98146102c55780635e5c06e2146102f05780636f77926b1461033157610140565b80630b1e7f831461014557806311a7a4c014610188578063224ae14a146101c957806340731c24146101f257806341f3004a1461022f575b600080fd5b34801561015157600080fd5b5061016c60048036038101906101679190614189565b61057c565b60405161017f9796959493929190614296565b60405180910390f35b34801561019457600080fd5b506101af60048036038101906101aa9190614189565b61080e565b6040516101c0959493929190614321565b60405180910390f35b3480156101d557600080fd5b506101f060048036038101906101eb91906144b7565b610984565b005b3480156101fe57600080fd5b5061021960048036038101906102149190614189565b610c4a565b6040516102269190614754565b60405180910390f35b34801561023b57600080fd5b50610244611012565b6040516102519190614904565b60405180910390f35b34801561026657600080fd5b5061026f6113fd565b005b34801561027d57600080fd5b5061028661153b565b005b34801561029457600080fd5b506102af60048036038101906102aa9190614952565b611862565b6040516102bc91906149ad565b60405180910390f35b3480156102d157600080fd5b506102da611891565b6040516102e791906149c8565b60405180910390f35b3480156102fc57600080fd5b50610317600480360381019061031291906149e3565b611897565b604051610328959493929190614a31565b60405180910390f35b34801561033d57600080fd5b50610358600480360381019061035391906149e3565b6119fd565b6040516103659190614be7565b60405180910390f35b34801561037a57600080fd5b5061039560048036038101906103909190614189565b611d42565b005b6103b160048036038101906103ac9190614c09565b612319565b005b3480156103bf57600080fd5b506103da60048036038101906103d59190614c94565b6124b7565b005b3480156103e857600080fd5b5061040360048036038101906103fe9190614189565b6129a7565b60405161041091906149ad565b60405180910390f35b34801561042557600080fd5b50610440600480360381019061043b9190614cf0565b612a0d565b60405161044e929190614d30565b60405180910390f35b34801561046357600080fd5b5061047e60048036038101906104799190614d85565b612a6e565b005b34801561048c57600080fd5b506104a760048036038101906104a29190614db2565b612e4c565b005b3480156104b557600080fd5b506104be613140565b005b3480156104cc57600080fd5b506104d56132d7565b6040516104e29190614f1b565b60405180910390f35b3480156104f757600080fd5b506105006133d3565b60405161050d91906149c8565b60405180910390f35b34801561052257600080fd5b5061053d60048036038101906105389190614cf0565b6133d9565b60405161054a9190614fba565b60405180910390f35b34801561055f57600080fd5b5061057a60048036038101906105759190614189565b613ce9565b005b6001818154811061058c57600080fd5b90600052602060002090600802016000915090508060000154908060010160009054906101000a900473ffffffffffffffffffffffffffffffffffffffff16908060020180546105db9061500b565b80601f01602080910402602001604051908101604052809291908181526020018280546106079061500b565b80156106545780601f1061062957610100808354040283529160200191610654565b820191906000526020600020905b81548152906001019060200180831161063757829003601f168201915b5050505050908060030180546106699061500b565b80601f01602080910402602001604051908101604052809291908181526020018280546106959061500b565b80156106e25780601f106106b7576101008083540402835291602001916106e2565b820191906000526020600020905b8154815290600101906020018083116106c557829003601f168201915b5050505050908060040180546106f79061500b565b80601f01602080910402602001604051908101604052809291908181526020018280546107239061500b565b80156107705780601f1061074557610100808354040283529160200191610770565b820191906000526020600020905b81548152906001019060200180831161075357829003601f168201915b5050505050908060050180546107859061500b565b80601f01602080910402602001604051908101604052809291908181526020018280546107b19061500b565b80156107fe5780601f106107d3576101008083540402835291602001916107fe565b820191906000526020600020905b8154815290600101906020018083116107e157829003601f168201915b5050505050908060060154905087565b6002818154811061081e57600080fd5b90600052602060002090600502016000915090508060000154908060010160009054906101000a900473ffffffffffffffffffffffffffffffffffffffff169080600201805461086d9061500b565b80601f01602080910402602001604051908101604052809291908181526020018280546108999061500b565b80156108e65780601f106108bb576101008083540402835291602001916108e6565b820191906000526020600020905b8154815290600101906020018083116108c957829003601f168201915b5050505050908060030180546108fb9061500b565b80601f01602080910402602001604051908101604052809291908181526020018280546109279061500b565b80156109745780601f1061094957610100808354040283529160200191610974565b820191906000526020600020905b81548152906001019060200180831161095757829003601f168201915b5050505050908060040154905085565b6000600360003373ffffffffffffffffffffffffffffffffffffffff1673ffffffffffffffffffffffffffffffffffffffff16815260200190815260200160002060020180546109d39061500b565b80601f01602080910402602001604051908101604052809291908181526020018280546109ff9061500b565b8015610a4c5780601f10610a2157610100808354040283529160200191610a4c565b820191906000526020600020905b815481529060010190602001808311610a2f57829003601f168201915b50505050509050600160405180610100016040528060045481526020013373ffffffffffffffffffffffffffffffffffffffff16815260200183815260200185815260200186815260200184815260200160008152602001600067ffffffffffffffff811115610abf57610abe61438c565b5b604051908082528060200260200182016040528015610af257816020015b6060815260200190600190039081610add5790505b5081525090806001815401808255809150506001900390600052602060002090600802016000909190919091506000820151816000015560208201518160010160006101000a81548173ffffffffffffffffffffffffffffffffffffffff021916908373ffffffffffffffffffffffffffffffffffffffff1602179055506040820151816002019081610b8591906151e8565b506060820151816003019081610b9b91906151e8565b506080820151816004019081610bb191906151e8565b5060a0820151816005019081610bc791906151e8565b5060c0820151816006015560e0820151816007019080519060200190610bee929190613eef565b5050507fcbddbfb53425ae82ea5081822f4ab52d73e4bc0d37a45087fb1d9655582b335060045433604051610c24929190614d30565b60405180910390a160046000815480929190610c3f906152e9565b919050555050505050565b610c52613f48565b60018281548110610c6657610c65615331565b5b906000526020600020906008020160405180610100016040529081600082015481526020016001820160009054906101000a900473ffffffffffffffffffffffffffffffffffffffff1673ffffffffffffffffffffffffffffffffffffffff1673ffffffffffffffffffffffffffffffffffffffff168152602001600282018054610cf09061500b565b80601f0160208091040260200160405190810160405280929190818152602001828054610d1c9061500b565b8015610d695780601f10610d3e57610100808354040283529160200191610d69565b820191906000526020600020905b815481529060010190602001808311610d4c57829003601f168201915b50505050508152602001600382018054610d829061500b565b80601f0160208091040260200160405190810160405280929190818152602001828054610dae9061500b565b8015610dfb5780601f10610dd057610100808354040283529160200191610dfb565b820191906000526020600020905b815481529060010190602001808311610dde57829003601f168201915b50505050508152602001600482018054610e149061500b565b80601f0160208091040260200160405190810160405280929190818152602001828054610e409061500b565b8015610e8d5780601f10610e6257610100808354040283529160200191610e8d565b820191906000526020600020905b815481529060010190602001808311610e7057829003601f168201915b50505050508152602001600582018054610ea69061500b565b80601f0160208091040260200160405190810160405280929190818152602001828054610ed29061500b565b8015610f1f5780601f10610ef457610100808354040283529160200191610f1f565b820191906000526020600020905b815481529060010190602001808311610f0257829003601f168201915b505050505081526020016006820154815260200160078201805480602002602001604051908101604052809291908181526020016000905b82821015611003578382906000526020600020018054610f769061500b565b80601f0160208091040260200160405190810160405280929190818152602001828054610fa29061500b565b8015610fef5780601f10610fc457610100808354040283529160200191610fef565b820191906000526020600020905b815481529060010190602001808311610fd257829003601f168201915b505050505081526020019060010190610f57565b50505050815250509050919050565b60606001805480602002602001604051908101604052809291908181526020016000905b828210156113f4578382906000526020600020906008020160405180610100016040529081600082015481526020016001820160009054906101000a900473ffffffffffffffffffffffffffffffffffffffff1673ffffffffffffffffffffffffffffffffffffffff1673ffffffffffffffffffffffffffffffffffffffff1681526020016002820180546110ca9061500b565b80601f01602080910402602001604051908101604052809291908181526020018280546110f69061500b565b80156111435780601f1061111857610100808354040283529160200191611143565b820191906000526020600020905b81548152906001019060200180831161112657829003601f168201915b5050505050815260200160038201805461115c9061500b565b80601f01602080910402602001604051908101604052809291908181526020018280546111889061500b565b80156111d55780601f106111aa576101008083540402835291602001916111d5565b820191906000526020600020905b8154815290600101906020018083116111b857829003601f168201915b505050505081526020016004820180546111ee9061500b565b80601f016020809104026020016040519081016040528092919081815260200182805461121a9061500b565b80156112675780601f1061123c57610100808354040283529160200191611267565b820191906000526020600020905b81548152906001019060200180831161124a57829003601f168201915b505050505081526020016005820180546112809061500b565b80601f01602080910402602001604051908101604052809291908181526020018280546112ac9061500b565b80156112f95780601f106112ce576101008083540402835291602001916112f9565b820191906000526020600020905b8154815290600101906020018083116112dc57829003601f168201915b505050505081526020016006820154815260200160078201805480602002602001604051908101604052809291908181526020016000905b828210156113dd5783829060005260206000200180546113509061500b565b80601f016020809104026020016040519081016040528092919081815260200182805461137c9061500b565b80156113c95780601f1061139e576101008083540402835291602001916113c9565b820191906000526020600020905b8154815290600101906020018083116113ac57829003601f168201915b505050505081526020019060010190611331565b505050508152505081526020019060010190611036565b50505050905090565b73d9b7062384f7cce39e96c13962f9c79d4c94143873ffffffffffffffffffffffffffffffffffffffff163373ffffffffffffffffffffffffffffffffffffffff161461147f576040517f08c379a0000000000000000000000000000000000000000000000000000000008152600401611476906153d2565b60405180910390fd5b6000600754116114c4576040517f08c379a00000000000000000000000000000000000000000000000000000000081526004016114bb90615464565b60405180910390fd5b3373ffffffffffffffffffffffffffffffffffffffff166108fc6007549081150290604051600060405180830381858888f1935050505015801561150c573d6000803e3d6000fd5b507ff75fefae3ed4cf4e96a2b9f2edb619f09a058d15def478e0bde6675a0205248560405160405180910390a1565b6000600360003373ffffffffffffffffffffffffffffffffffffffff1673ffffffffffffffffffffffffffffffffffffffff168152602001908152602001600020600501549050600081116115c5576040517f08c379a00000000000000000000000000000000000000000000000000000000081526004016115bc906154d0565b60405180910390fd5b6000600360003373ffffffffffffffffffffffffffffffffffffffff1673ffffffffffffffffffffffffffffffffffffffff168152602001908152602001600020600101805490500361164d576040517f08c379a00000000000000000000000000000000000000000000000000000000081526004016116449061553c565b60405180910390fd5b60005b600360003373ffffffffffffffffffffffffffffffffffffffff1673ffffffffffffffffffffffffffffffffffffffff168152602001908152602001600020600101805490508110156117dd576000600360003373ffffffffffffffffffffffffffffffffffffffff1673ffffffffffffffffffffffffffffffffffffffff16815260200190815260200160002060010182815481106116f3576116f2615331565b5b9060005260206000200160009054906101000a900473ffffffffffffffffffffffffffffffffffffffff169050600360003373ffffffffffffffffffffffffffffffffffffffff1673ffffffffffffffffffffffffffffffffffffffff1681526020019081526020016000206001018054905083611771919061558b565b600360008373ffffffffffffffffffffffffffffffffffffffff1673ffffffffffffffffffffffffffffffffffffffff16815260200190815260200160002060040160008282546117c291906155bc565b925050819055505080806117d5906152e9565b915050611650565b506000600360003373ffffffffffffffffffffffffffffffffffffffff1673ffffffffffffffffffffffffffffffffffffffff168152602001908152602001600020600501819055507f093c34ee1a205cff82735a055cf2754b8001ab5733e3a6e6b2662e269cbc809633826040516118579291906155f0565b60405180910390a150565b60006020528160005260406000206020528060005260406000206000915091509054906101000a900460ff1681565b60045481565b60036020528060005260406000206000915090508060000160009054906101000a900473ffffffffffffffffffffffffffffffffffffffff16908060020180546118e09061500b565b80601f016020809104026020016040519081016040528092919081815260200182805461190c9061500b565b80156119595780601f1061192e57610100808354040283529160200191611959565b820191906000526020600020905b81548152906001019060200180831161193c57829003601f168201915b50505050509080600301805461196e9061500b565b80601f016020809104026020016040519081016040528092919081815260200182805461199a9061500b565b80156119e75780601f106119bc576101008083540402835291602001916119e7565b820191906000526020600020905b8154815290600101906020018083116119ca57829003601f168201915b5050505050908060040154908060050154905085565b611a05613fa3565b8173ffffffffffffffffffffffffffffffffffffffff16600360008473ffffffffffffffffffffffffffffffffffffffff1673ffffffffffffffffffffffffffffffffffffffff16815260200190815260200160002060000160009054906101000a900473ffffffffffffffffffffffffffffffffffffffff1673ffffffffffffffffffffffffffffffffffffffff1614611ad5576040517f08c379a0000000000000000000000000000000000000000000000000000000008152600401611acc90615665565b60405180910390fd5b600360008373ffffffffffffffffffffffffffffffffffffffff1673ffffffffffffffffffffffffffffffffffffffff1681526020019081526020016000206040518060c00160405290816000820160009054906101000a900473ffffffffffffffffffffffffffffffffffffffff1673ffffffffffffffffffffffffffffffffffffffff1673ffffffffffffffffffffffffffffffffffffffff16815260200160018201805480602002602001604051908101604052809291908181526020018280548015611bfa57602002820191906000526020600020905b8160009054906101000a900473ffffffffffffffffffffffffffffffffffffffff1673ffffffffffffffffffffffffffffffffffffffff1681526020019060010190808311611bb0575b50505050508152602001600282018054611c139061500b565b80601f0160208091040260200160405190810160405280929190818152602001828054611c3f9061500b565b8015611c8c5780601f10611c6157610100808354040283529160200191611c8c565b820191906000526020600020905b815481529060010190602001808311611c6f57829003601f168201915b50505050508152602001600382018054611ca59061500b565b80601f0160208091040260200160405190810160405280929190818152602001828054611cd19061500b565b8015611d1e5780601f10611cf357610100808354040283529160200191611d1e565b820191906000526020600020905b815481529060010190602001808311611d0157829003601f168201915b50505050508152602001600482015481526020016005820154815250509050919050565b6001805490508110611d89576040517f08c379a0000000000000000000000000000000000000000000000000000000008152600401611d80906156d1565b60405180910390fd5b60008082815260200190815260200160002060003373ffffffffffffffffffffffffffffffffffffffff1673ffffffffffffffffffffffffffffffffffffffff16815260200190815260200160002060009054906101000a900460ff1615611e26576040517f08c379a0000000000000000000000000000000000000000000000000000000008152600401611e1d9061573d565b60405180910390fd5b60018181548110611e3a57611e39615331565b5b90600052602060002090600802016006016000815480929190611e5c906152e9565b9190505550600160008083815260200190815260200160002060003373ffffffffffffffffffffffffffffffffffffffff1673ffffffffffffffffffffffffffffffffffffffff16815260200190815260200160002060006101000a81548160ff02191690831515021790555060018181548110611edd57611edc615331565b5b906000526020600020906008020160010160009054906101000a900473ffffffffffffffffffffffffffffffffffffffff1673ffffffffffffffffffffffffffffffffffffffff163373ffffffffffffffffffffffffffffffffffffffff16146122dd576000805b6008600060018581548110611f5d57611f5c615331565b5b906000526020600020906008020160010160009054906101000a900473ffffffffffffffffffffffffffffffffffffffff1673ffffffffffffffffffffffffffffffffffffffff1673ffffffffffffffffffffffffffffffffffffffff168152602001908152602001600020805490508110156121a5573373ffffffffffffffffffffffffffffffffffffffff16600860006001868154811061200357612002615331565b5b906000526020600020906008020160010160009054906101000a900473ffffffffffffffffffffffffffffffffffffffff1673ffffffffffffffffffffffffffffffffffffffff1673ffffffffffffffffffffffffffffffffffffffff168152602001908152602001600020828154811061208157612080615331565b5b906000526020600020906002020160010160009054906101000a900473ffffffffffffffffffffffffffffffffffffffff1673ffffffffffffffffffffffffffffffffffffffff160361219257600260086000600186815481106120e8576120e7615331565b5b906000526020600020906008020160010160009054906101000a900473ffffffffffffffffffffffffffffffffffffffff1673ffffffffffffffffffffffffffffffffffffffff1673ffffffffffffffffffffffffffffffffffffffff168152602001908152602001600020828154811061216657612165615331565b5b9060005260206000209060020201600001600082825461218691906155bc565b92505081905550600191505b808061219d906152e9565b915050611f45565b50600081036122db5760086000600184815481106121c6576121c5615331565b5b906000526020600020906008020160010160009054906101000a900473ffffffffffffffffffffffffffffffffffffffff1673ffffffffffffffffffffffffffffffffffffffff1673ffffffffffffffffffffffffffffffffffffffff1681526020019081526020016000206040518060400160405280600281526020013373ffffffffffffffffffffffffffffffffffffffff1681525090806001815401808255809150506001900390600052602060002090600202016000909190919091506000820151816000015560208201518160010160006101000a81548173ffffffffffffffffffffffffffffffffffffffff021916908373ffffffffffffffffffffffffffffffffffffffff16021790555050505b505b7fcf765d6f163c9b0d832e2a94f4c8e9bffd32a2c3ca5fdbb8cc67b5fe1441f413813360405161230e929190614d30565b60405180910390a150565b655af3107a40008261232b919061575d565b341461236c576040517f08c379a000000000000000000000000000000000000000000000000000000000815260040161236390615811565b60405180910390fd5b60026040518060a0016040528060055481526020013373ffffffffffffffffffffffffffffffffffffffff1681526020018581526020018381526020018481525090806001815401808255809150506001900390600052602060002090600502016000909190919091506000820151816000015560208201518160010160006101000a81548173ffffffffffffffffffffffffffffffffffffffff021916908373ffffffffffffffffffffffffffffffffffffffff160217905550604082015181600201908161243c91906151e8565b50606082015181600301908161245291906151e8565b506080820151816004015550507fcd5564575bfb2465468592a49409cb955c94dba0e4f362e63e1e17d768376b3760055433604051612492929190614d30565b60405180910390a1600560008154809291906124ad906152e9565b9190505550505050565b60018054905082106124fe576040517f08c379a00000000000000000000000000000000000000000000000000000000081526004016124f5906156d1565b60405180910390fd5b6001828154811061251257612511615331565b5b90600052602060002090600802016007018190806001815401808255809150506001900390600052602060002001600090919091909150908161255591906151e8565b507f31b8fb140a9781860311e9bc0ac7116b8bd7b6d7cb6961095c04b5be7f47882e8282604051612587929190615831565b60405180910390a1600182815481106125a3576125a2615331565b5b906000526020600020906008020160010160009054906101000a900473ffffffffffffffffffffffffffffffffffffffff1673ffffffffffffffffffffffffffffffffffffffff163373ffffffffffffffffffffffffffffffffffffffff16146129a3576000805b600860006001868154811061262357612622615331565b5b906000526020600020906008020160010160009054906101000a900473ffffffffffffffffffffffffffffffffffffffff1673ffffffffffffffffffffffffffffffffffffffff1673ffffffffffffffffffffffffffffffffffffffff1681526020019081526020016000208054905081101561286b573373ffffffffffffffffffffffffffffffffffffffff1660086000600187815481106126c9576126c8615331565b5b906000526020600020906008020160010160009054906101000a900473ffffffffffffffffffffffffffffffffffffffff1673ffffffffffffffffffffffffffffffffffffffff1673ffffffffffffffffffffffffffffffffffffffff168152602001908152602001600020828154811061274757612746615331565b5b906000526020600020906002020160010160009054906101000a900473ffffffffffffffffffffffffffffffffffffffff1673ffffffffffffffffffffffffffffffffffffffff160361285857600360086000600187815481106127ae576127ad615331565b5b906000526020600020906008020160010160009054906101000a900473ffffffffffffffffffffffffffffffffffffffff1673ffffffffffffffffffffffffffffffffffffffff1673ffffffffffffffffffffffffffffffffffffffff168152602001908152602001600020828154811061282c5761282b615331565b5b9060005260206000209060020201600001600082825461284c91906155bc565b92505081905550600191505b8080612863906152e9565b91505061260b565b50600081036129a157600860006001858154811061288c5761288b615331565b5b906000526020600020906008020160010160009054906101000a900473ffffffffffffffffffffffffffffffffffffffff1673ffffffffffffffffffffffffffffffffffffffff1673ffffffffffffffffffffffffffffffffffffffff1681526020019081526020016000206040518060400160405280600381526020013373ffffffffffffffffffffffffffffffffffffffff1681525090806001815401808255809150506001900390600052602060002090600202016000909190919091506000820151816000015560208201518160010160006101000a81548173ffffffffffffffffffffffffffffffffffffffff021916908373ffffffffffffffffffffffffffffffffffffffff16021790555050505b505b5050565b600080600083815260200190815260200160002060003373ffffffffffffffffffffffffffffffffffffffff1673ffffffffffffffffffffffffffffffffffffffff16815260200190815260200160002060009054906101000a900460ff169050919050565b60086020528160005260406000208181548110612a2957600080fd5b9060005260206000209060020201600091509150508060000154908060010160009054906101000a900473ffffffffffffffffffffffffffffffffffffffff16905082565b600360003373ffffffffffffffffffffffffffffffffffffffff1673ffffffffffffffffffffffffffffffffffffffff16815260200190815260200160002060000160009054906101000a900473ffffffffffffffffffffffffffffffffffffffff1673ffffffffffffffffffffffffffffffffffffffff163373ffffffffffffffffffffffffffffffffffffffff1614612b3e576040517f08c379a0000000000000000000000000000000000000000000000000000000008152600401612b35906158d3565b60405180910390fd5b8073ffffffffffffffffffffffffffffffffffffffff16600360003373ffffffffffffffffffffffffffffffffffffffff1673ffffffffffffffffffffffffffffffffffffffff16815260200190815260200160002060000160009054906101000a900473ffffffffffffffffffffffffffffffffffffffff1673ffffffffffffffffffffffffffffffffffffffff1603612c0e576040517f08c379a0000000000000000000000000000000000000000000000000000000008152600401612c0590615965565b60405180910390fd5b6000805b600360003373ffffffffffffffffffffffffffffffffffffffff1673ffffffffffffffffffffffffffffffffffffffff16815260200190815260200160002060010180549050811015612d2c578273ffffffffffffffffffffffffffffffffffffffff16600360003373ffffffffffffffffffffffffffffffffffffffff1673ffffffffffffffffffffffffffffffffffffffff1681526020019081526020016000206001018281548110612cca57612cc9615331565b5b9060005260206000200160009054906101000a900473ffffffffffffffffffffffffffffffffffffffff1673ffffffffffffffffffffffffffffffffffffffff1603612d195760019150612d2c565b8080612d24906152e9565b915050612c12565b508015612d6e576040517f08c379a0000000000000000000000000000000000000000000000000000000008152600401612d65906159d1565b60405180910390fd5b600360003373ffffffffffffffffffffffffffffffffffffffff1673ffffffffffffffffffffffffffffffffffffffff168152602001908152602001600020600101829080600181540180825580915050600190039060005260206000200160009091909190916101000a81548173ffffffffffffffffffffffffffffffffffffffff021916908373ffffffffffffffffffffffffffffffffffffffff1602179055507f96dd2f9b07cc8115f4cc97114bfcebe7db8cb9173685fe95972cb67626eae5f482604051612e409190615a46565b60405180910390a15050565b600073ffffffffffffffffffffffffffffffffffffffff16600360008573ffffffffffffffffffffffffffffffffffffffff1673ffffffffffffffffffffffffffffffffffffffff16815260200190815260200160002060000160009054906101000a900473ffffffffffffffffffffffffffffffffffffffff1673ffffffffffffffffffffffffffffffffffffffff1614612f1d576040517f08c379a0000000000000000000000000000000000000000000000000000000008152600401612f1490615aad565b60405180910390fd5b612f2682613e72565b15612f66576040517f08c379a0000000000000000000000000000000000000000000000000000000008152600401612f5d90615b19565b60405180910390fd5b6040518060c001604052808473ffffffffffffffffffffffffffffffffffffffff168152602001600067ffffffffffffffff811115612fa857612fa761438c565b5b604051908082528060200260200182016040528015612fd65781602001602082028036833780820191505090505b508152602001838152602001828152602001600081526020016000815250600360008573ffffffffffffffffffffffffffffffffffffffff1673ffffffffffffffffffffffffffffffffffffffff16815260200190815260200160002060008201518160000160006101000a81548173ffffffffffffffffffffffffffffffffffffffff021916908373ffffffffffffffffffffffffffffffffffffffff1602179055506020820151816001019080519060200190613096929190613fef565b5060408201518160020190816130ac91906151e8565b5060608201518160030190816130c291906151e8565b506080820151816004015560a0820151816005015590505060068290806001815401808255809150506001900390600052602060002001600090919091909150908161310e91906151e8565b507f79f63fcc482f5019b651e9b3762dac1f1cb6321815ef50d5ce709410faa2d39460405160405180910390a1505050565b6000600360003373ffffffffffffffffffffffffffffffffffffffff1673ffffffffffffffffffffffffffffffffffffffff1681526020019081526020016000206004015490506000600360003373ffffffffffffffffffffffffffffffffffffffff1673ffffffffffffffffffffffffffffffffffffffff168152602001908152602001600020600401541161320c576040517f08c379a000000000000000000000000000000000000000000000000000000000815260040161320390615b85565b60405180910390fd5b3373ffffffffffffffffffffffffffffffffffffffff166108fc829081150290604051600060405180830381858888f19350505050158015613252573d6000803e3d6000fd5b506000600360003373ffffffffffffffffffffffffffffffffffffffff1673ffffffffffffffffffffffffffffffffffffffff168152602001908152602001600020600401819055507f8a43c4352486ec339f487f64af78ca5cbf06cd47833f073d3baf3a193e50316133826040516132cc9291906155f0565b60405180910390a150565b6060600860003373ffffffffffffffffffffffffffffffffffffffff1673ffffffffffffffffffffffffffffffffffffffff168152602001908152602001600020805480602002602001604051908101604052809291908181526020016000905b828210156133ca5783829060005260206000209060020201604051806040016040529081600082015481526020016001820160009054906101000a900473ffffffffffffffffffffffffffffffffffffffff1673ffffffffffffffffffffffffffffffffffffffff1673ffffffffffffffffffffffffffffffffffffffff168152505081526020019060010190613338565b50505050905090565b60055481565b6133e1614079565b600182815481106133f5576133f4615331565b5b906000526020600020906008020160010160009054906101000a900473ffffffffffffffffffffffffffffffffffffffff1673ffffffffffffffffffffffffffffffffffffffff163373ffffffffffffffffffffffffffffffffffffffff16146137f5576000805b600860006001868154811061347557613474615331565b5b906000526020600020906008020160010160009054906101000a900473ffffffffffffffffffffffffffffffffffffffff1673ffffffffffffffffffffffffffffffffffffffff1673ffffffffffffffffffffffffffffffffffffffff168152602001908152602001600020805490508110156136bd573373ffffffffffffffffffffffffffffffffffffffff16600860006001878154811061351b5761351a615331565b5b906000526020600020906008020160010160009054906101000a900473ffffffffffffffffffffffffffffffffffffffff1673ffffffffffffffffffffffffffffffffffffffff1673ffffffffffffffffffffffffffffffffffffffff168152602001908152602001600020828154811061359957613598615331565b5b906000526020600020906002020160010160009054906101000a900473ffffffffffffffffffffffffffffffffffffffff1673ffffffffffffffffffffffffffffffffffffffff16036136aa5760016008600060018781548110613600576135ff615331565b5b906000526020600020906008020160010160009054906101000a900473ffffffffffffffffffffffffffffffffffffffff1673ffffffffffffffffffffffffffffffffffffffff1673ffffffffffffffffffffffffffffffffffffffff168152602001908152602001600020828154811061367e5761367d615331565b5b9060005260206000209060020201600001600082825461369e91906155bc565b92505081905550600191505b80806136b5906152e9565b91505061345d565b50600081036137f35760086000600185815481106136de576136dd615331565b5b906000526020600020906008020160010160009054906101000a900473ffffffffffffffffffffffffffffffffffffffff1673ffffffffffffffffffffffffffffffffffffffff1673ffffffffffffffffffffffffffffffffffffffff1681526020019081526020016000206040518060400160405280600181526020013373ffffffffffffffffffffffffffffffffffffffff1681525090806001815401808255809150506001900390600052602060002090600202016000909190919091506000820151816000015560208201518160010160006101000a81548173ffffffffffffffffffffffffffffffffffffffff021916908373ffffffffffffffffffffffffffffffffffffffff16021790555050505b505b60008060005b6002805490508110156138cf573373ffffffffffffffffffffffffffffffffffffffff166002828154811061383357613832615331565b5b906000526020600020906005020160010160009054906101000a900473ffffffffffffffffffffffffffffffffffffffff1673ffffffffffffffffffffffffffffffffffffffff1603156138bc5760006002828154811061389757613896615331565b5b90600052602060002090600502016004015411156138bb57809250600191506138cf565b5b80806138c7906152e9565b9150506137fb565b5080613910576040517f08c379a000000000000000000000000000000000000000000000000000000000815260040161390790615bf1565b60405180910390fd5b6000655af3107a40009050600060028261392a919061558b565b9050600060058361393b919061558b565b9050600081838561394c9190615c11565b6139569190615c11565b905082600360008b73ffffffffffffffffffffffffffffffffffffffff1673ffffffffffffffffffffffffffffffffffffffff16815260200190815260200160002060040160008282546139aa91906155bc565b9250508190555081600360008b73ffffffffffffffffffffffffffffffffffffffff1673ffffffffffffffffffffffffffffffffffffffff1681526020019081526020016000206005016000828254613a0391906155bc565b9250508190555080600754613a1891906155bc565b600781905550818385613a2b9190615c11565b613a359190615c11565b600360003073ffffffffffffffffffffffffffffffffffffffff1673ffffffffffffffffffffffffffffffffffffffff1681526020019081526020016000206004016000828254613a8691906155bc565b9250508190555060028681548110613aa157613aa0615331565b5b90600052602060002090600502016004016000815480929190613ac390615c45565b91905055507ff99eb597b135d15da7fb2131fe0be5d42c4a11aad684a410bf32fa94cfd8410460028781548110613afd57613afc615331565b5b9060005260206000209060050201604051613b189190615dfb565b60405180910390a160028681548110613b3457613b33615331565b5b90600052602060002090600502016040518060a0016040529081600082015481526020016001820160009054906101000a900473ffffffffffffffffffffffffffffffffffffffff1673ffffffffffffffffffffffffffffffffffffffff1673ffffffffffffffffffffffffffffffffffffffff168152602001600282018054613bbd9061500b565b80601f0160208091040260200160405190810160405280929190818152602001828054613be99061500b565b8015613c365780601f10613c0b57610100808354040283529160200191613c36565b820191906000526020600020905b815481529060010190602001808311613c1957829003601f168201915b50505050508152602001600382018054613c4f9061500b565b80601f0160208091040260200160405190810160405280929190818152602001828054613c7b9061500b565b8015613cc85780601f10613c9d57610100808354040283529160200191613cc8565b820191906000526020600020905b815481529060010190602001808311613cab57829003601f168201915b50505050508152602001600482015481525050965050505050505092915050565b6001805490508110613d30576040517f08c379a0000000000000000000000000000000000000000000000000000000008152600401613d27906156d1565b60405180910390fd5b60008082815260200190815260200160002060003373ffffffffffffffffffffffffffffffffffffffff1673ffffffffffffffffffffffffffffffffffffffff16815260200190815260200160002060009054906101000a900460ff16613dcc576040517f08c379a0000000000000000000000000000000000000000000000000000000008152600401613dc390615e69565b60405180910390fd5b60018181548110613de057613ddf615331565b5b90600052602060002090600802016006016000815480929190613e0290615c45565b9190505550600080600083815260200190815260200160002060003373ffffffffffffffffffffffffffffffffffffffff1673ffffffffffffffffffffffffffffffffffffffff16815260200190815260200160002060006101000a81548160ff02191690831515021790555050565b600080600090505b600680549050811015613ee457828051906020012060068281548110613ea357613ea2615331565b5b90600052602060002001604051613eba9190615f2c565b604051809103902003613ed1576001915050613eea565b8080613edc906152e9565b915050613e7a565b50600090505b919050565b828054828255906000526020600020908101928215613f37579160200282015b82811115613f36578251829081613f2691906151e8565b5091602001919060010190613f0f565b5b509050613f4491906140be565b5090565b60405180610100016040528060008152602001600073ffffffffffffffffffffffffffffffffffffffff1681526020016060815260200160608152602001606081526020016060815260200160008152602001606081525090565b6040518060c00160405280600073ffffffffffffffffffffffffffffffffffffffff16815260200160608152602001606081526020016060815260200160008152602001600081525090565b828054828255906000526020600020908101928215614068579160200282015b828111156140675782518260006101000a81548173ffffffffffffffffffffffffffffffffffffffff021916908373ffffffffffffffffffffffffffffffffffffffff1602179055509160200191906001019061400f565b5b50905061407591906140e2565b5090565b6040518060a0016040528060008152602001600073ffffffffffffffffffffffffffffffffffffffff1681526020016060815260200160608152602001600081525090565b5b808211156140de57600081816140d591906140ff565b506001016140bf565b5090565b5b808211156140fb5760008160009055506001016140e3565b5090565b50805461410b9061500b565b6000825580601f1061411d575061413c565b601f01602090049060005260206000209081019061413b91906140e2565b5b50565b6000604051905090565b600080fd5b600080fd5b6000819050919050565b61416681614153565b811461417157600080fd5b50565b6000813590506141838161415d565b92915050565b60006020828403121561419f5761419e614149565b5b60006141ad84828501614174565b91505092915050565b6141bf81614153565b82525050565b600073ffffffffffffffffffffffffffffffffffffffff82169050919050565b60006141f0826141c5565b9050919050565b614200816141e5565b82525050565b600081519050919050565b600082825260208201905092915050565b60005b83811015614240578082015181840152602081019050614225565b60008484015250505050565b6000601f19601f8301169050919050565b600061426882614206565b6142728185614211565b9350614282818560208601614222565b61428b8161424c565b840191505092915050565b600060e0820190506142ab600083018a6141b6565b6142b860208301896141f7565b81810360408301526142ca818861425d565b905081810360608301526142de818761425d565b905081810360808301526142f2818661425d565b905081810360a0830152614306818561425d565b905061431560c08301846141b6565b98975050505050505050565b600060a08201905061433660008301886141b6565b61434360208301876141f7565b8181036040830152614355818661425d565b90508181036060830152614369818561425d565b905061437860808301846141b6565b9695505050505050565b600080fd5b600080fd5b7f4e487b7100000000000000000000000000000000000000000000000000000000600052604160045260246000fd5b6143c48261424c565b810181811067ffffffffffffffff821117156143e3576143e261438c565b5b80604052505050565b60006143f661413f565b905061440282826143bb565b919050565b600067ffffffffffffffff8211156144225761442161438c565b5b61442b8261424c565b9050602081019050919050565b82818337600083830152505050565b600061445a61445584614407565b6143ec565b90508281526020810184848401111561447657614475614387565b5b614481848285614438565b509392505050565b600082601f83011261449e5761449d614382565b5b81356144ae848260208601614447565b91505092915050565b6000806000606084860312156144d0576144cf614149565b5b600084013567ffffffffffffffff8111156144ee576144ed61414e565b5b6144fa86828701614489565b935050602084013567ffffffffffffffff81111561451b5761451a61414e565b5b61452786828701614489565b925050604084013567ffffffffffffffff8111156145485761454761414e565b5b61455486828701614489565b9150509250925092565b61456781614153565b82525050565b614576816141e5565b82525050565b600082825260208201905092915050565b600061459882614206565b6145a2818561457c565b93506145b2818560208601614222565b6145bb8161424c565b840191505092915050565b600081519050919050565b600082825260208201905092915050565b6000819050602082019050919050565b60006145fe838361458d565b905092915050565b6000602082019050919050565b600061461e826145c6565b61462881856145d1565b93508360208202850161463a856145e2565b8060005b85811015614676578484038952815161465785826145f2565b945061466283614606565b925060208a0199505060018101905061463e565b50829750879550505050505092915050565b6000610100830160008301516146a1600086018261455e565b5060208301516146b4602086018261456d565b50604083015184820360408601526146cc828261458d565b915050606083015184820360608601526146e6828261458d565b91505060808301518482036080860152614700828261458d565b91505060a083015184820360a086015261471a828261458d565b91505060c083015161472f60c086018261455e565b5060e083015184820360e08601526147478282614613565b9150508091505092915050565b6000602082019050818103600083015261476e8184614688565b905092915050565b600081519050919050565b600082825260208201905092915050565b6000819050602082019050919050565b6000610100830160008301516147bb600086018261455e565b5060208301516147ce602086018261456d565b50604083015184820360408601526147e6828261458d565b91505060608301518482036060860152614800828261458d565b9150506080830151848203608086015261481a828261458d565b91505060a083015184820360a0860152614834828261458d565b91505060c083015161484960c086018261455e565b5060e083015184820360e08601526148618282614613565b9150508091505092915050565b600061487a83836147a2565b905092915050565b6000602082019050919050565b600061489a82614776565b6148a48185614781565b9350836020820285016148b685614792565b8060005b858110156148f257848403895281516148d3858261486e565b94506148de83614882565b925060208a019950506001810190506148ba565b50829750879550505050505092915050565b6000602082019050818103600083015261491e818461488f565b905092915050565b61492f816141e5565b811461493a57600080fd5b50565b60008135905061494c81614926565b92915050565b6000806040838503121561496957614968614149565b5b600061497785828601614174565b92505060206149888582860161493d565b9150509250929050565b60008115159050919050565b6149a781614992565b82525050565b60006020820190506149c2600083018461499e565b92915050565b60006020820190506149dd60008301846141b6565b92915050565b6000602082840312156149f9576149f8614149565b5b6000614a078482850161493d565b91505092915050565b6000614a1b826141c5565b9050919050565b614a2b81614a10565b82525050565b600060a082019050614a466000830188614a22565b8181036020830152614a58818761425d565b90508181036040830152614a6c818661425d565b9050614a7b60608301856141b6565b614a8860808301846141b6565b9695505050505050565b614a9b81614a10565b82525050565b600081519050919050565b600082825260208201905092915050565b6000819050602082019050919050565b6000614ad98383614a92565b60208301905092915050565b6000602082019050919050565b6000614afd82614aa1565b614b078185614aac565b9350614b1283614abd565b8060005b83811015614b43578151614b2a8882614acd565b9750614b3583614ae5565b925050600181019050614b16565b5085935050505092915050565b600060c083016000830151614b686000860182614a92565b5060208301518482036020860152614b808282614af2565b91505060408301518482036040860152614b9a828261458d565b91505060608301518482036060860152614bb4828261458d565b9150506080830151614bc9608086018261455e565b5060a0830151614bdc60a086018261455e565b508091505092915050565b60006020820190508181036000830152614c018184614b50565b905092915050565b600080600060608486031215614c2257614c21614149565b5b600084013567ffffffffffffffff811115614c4057614c3f61414e565b5b614c4c86828701614489565b9350506020614c5d86828701614174565b925050604084013567ffffffffffffffff811115614c7e57614c7d61414e565b5b614c8a86828701614489565b9150509250925092565b60008060408385031215614cab57614caa614149565b5b6000614cb985828601614174565b925050602083013567ffffffffffffffff811115614cda57614cd961414e565b5b614ce685828601614489565b9150509250929050565b60008060408385031215614d0757614d06614149565b5b6000614d158582860161493d565b9250506020614d2685828601614174565b9150509250929050565b6000604082019050614d4560008301856141b6565b614d5260208301846141f7565b9392505050565b614d6281614a10565b8114614d6d57600080fd5b50565b600081359050614d7f81614d59565b92915050565b600060208284031215614d9b57614d9a614149565b5b6000614da984828501614d70565b91505092915050565b600080600060608486031215614dcb57614dca614149565b5b6000614dd986828701614d70565b935050602084013567ffffffffffffffff811115614dfa57614df961414e565b5b614e0686828701614489565b925050604084013567ffffffffffffffff811115614e2757614e2661414e565b5b614e3386828701614489565b9150509250925092565b600081519050919050565b600082825260208201905092915050565b6000819050602082019050919050565b604082016000820151614e7f600085018261455e565b506020820151614e92602085018261456d565b50505050565b6000614ea48383614e69565b60408301905092915050565b6000602082019050919050565b6000614ec882614e3d565b614ed28185614e48565b9350614edd83614e59565b8060005b83811015614f0e578151614ef58882614e98565b9750614f0083614eb0565b925050600181019050614ee1565b5085935050505092915050565b60006020820190508181036000830152614f358184614ebd565b905092915050565b600060a083016000830151614f55600086018261455e565b506020830151614f68602086018261456d565b5060408301518482036040860152614f80828261458d565b91505060608301518482036060860152614f9a828261458d565b9150506080830151614faf608086018261455e565b508091505092915050565b60006020820190508181036000830152614fd48184614f3d565b905092915050565b7f4e487b7100000000000000000000000000000000000000000000000000000000600052602260045260246000fd5b6000600282049050600182168061502357607f821691505b60208210810361503657615035614fdc565b5b50919050565b60008190508160005260206000209050919050565b60006020601f8301049050919050565b600082821b905092915050565b60006008830261509e7fffffffffffffffffffffffffffffffffffffffffffffffffffffffffffffffff82615061565b6150a88683615061565b95508019841693508086168417925050509392505050565b6000819050919050565b60006150e56150e06150db84614153565b6150c0565b614153565b9050919050565b6000819050919050565b6150ff836150ca565b61511361510b826150ec565b84845461506e565b825550505050565b600090565b61512861511b565b6151338184846150f6565b505050565b5b818110156151575761514c600082615120565b600181019050615139565b5050565b601f82111561519c5761516d8161503c565b61517684615051565b81016020851015615185578190505b61519961519185615051565b830182615138565b50505b505050565b600082821c905092915050565b60006151bf600019846008026151a1565b1980831691505092915050565b60006151d883836151ae565b9150826002028217905092915050565b6151f182614206565b67ffffffffffffffff81111561520a5761520961438c565b5b615214825461500b565b61521f82828561515b565b600060209050601f8311600181146152525760008415615240578287015190505b61524a85826151cc565b8655506152b2565b601f1984166152608661503c565b60005b8281101561528857848901518255600182019150602085019450602081019050615263565b868310156152a557848901516152a1601f8916826151ae565b8355505b6001600288020188555050505b505050505050565b7f4e487b7100000000000000000000000000000000000000000000000000000000600052601160045260246000fd5b60006152f482614153565b91507fffffffffffffffffffffffffffffffffffffffffffffffffffffffffffffffff8203615326576153256152ba565b5b600182019050919050565b7f4e487b7100000000000000000000000000000000000000000000000000000000600052603260045260246000fd5b7f4f6e6c792074686520636f6e7472616374206f776e65722063616e207769746860008201527f647261772066756e647300000000000000000000000000000000000000000000602082015250565b60006153bc602a83614211565b91506153c782615360565b604082019050919050565b600060208201905081810360008301526153eb816153af565b9050919050565b7f4e6f206f776e65722066756e647320617661696c61626c6520666f722077697460008201527f6864726177616c00000000000000000000000000000000000000000000000000602082015250565b600061544e602783614211565b9150615459826153f2565b604082019050919050565b6000602082019050818103600083015261547d81615441565b9050919050565b7f4e6f206c6f79616c7479207265776172647320746f2064697374726962757465600082015250565b60006154ba602083614211565b91506154c582615484565b602082019050919050565b600060208201905081810360008301526154e9816154ad565b9050919050565b7f4e6f204c6f79616c732041646465640000000000000000000000000000000000600082015250565b6000615526600f83614211565b9150615531826154f0565b602082019050919050565b6000602082019050818103600083015261555581615519565b9050919050565b7f4e487b7100000000000000000000000000000000000000000000000000000000600052601260045260246000fd5b600061559682614153565b91506155a183614153565b9250826155b1576155b061555c565b5b828204905092915050565b60006155c782614153565b91506155d283614153565b92508282019050808211156155ea576155e96152ba565b5b92915050565b600060408201905061560560008301856141f7565b61561260208301846141b6565b9392505050565b7f4163636f756e7420646f65736e74206578697374000000000000000000000000600082015250565b600061564f601483614211565b915061565a82615619565b602082019050919050565b6000602082019050818103600083015261567e81615642565b9050919050565b7f506f737420646f6573206e6f7420657869737400000000000000000000000000600082015250565b60006156bb601383614211565b91506156c682615685565b602082019050919050565b600060208201905081810360008301526156ea816156ae565b9050919050565b7f416c7265616479206c696b656400000000000000000000000000000000000000600082015250565b6000615727600d83614211565b9150615732826156f1565b602082019050919050565b600060208201905081810360008301526157568161571a565b9050919050565b600061576882614153565b915061577383614153565b925082820261578181614153565b91508282048414831517615798576157976152ba565b5b5092915050565b7f496e636f72726563742045746865722076616c756520666f722061647665727460008201527f6973656d656e7400000000000000000000000000000000000000000000000000602082015250565b60006157fb602783614211565b91506158068261579f565b604082019050919050565b6000602082019050818103600083015261582a816157ee565b9050919050565b600060408201905061584660008301856141b6565b8181036020830152615858818461425d565b90509392505050565b7f4f6e6c79206163636f756e74206f776e65722063616e20616464206c6f79616c60008201527f20666f6c6c6f7765727300000000000000000000000000000000000000000000602082015250565b60006158bd602a83614211565b91506158c882615861565b604082019050919050565b600060208201905081810360008301526158ec816158b0565b9050919050565b7f43616e6e6f742061646420796f757273656c66206173206c6f79616c20666f6c60008201527f6c6f776572000000000000000000000000000000000000000000000000000000602082015250565b600061594f602583614211565b915061595a826158f3565b604082019050919050565b6000602082019050818103600083015261597e81615942565b9050919050565b7f4c6f79616c206164647265737320616c72656164792065786973747300000000600082015250565b60006159bb601c83614211565b91506159c682615985565b602082019050919050565b600060208201905081810360008301526159ea816159ae565b9050919050565b6000615a0c615a07615a02846141c5565b6150c0565b6141c5565b9050919050565b6000615a1e826159f1565b9050919050565b6000615a3082615a13565b9050919050565b615a4081615a25565b82525050565b6000602082019050615a5b6000830184615a37565b92915050565b7f4163636f756e7420616c72656164792065786973747300000000000000000000600082015250565b6000615a97601683614211565b9150615aa282615a61565b602082019050919050565b60006020820190508181036000830152615ac681615a8a565b9050919050565b7f557365726e616d6520616c726561647920657869737473000000000000000000600082015250565b6000615b03601783614211565b9150615b0e82615acd565b602082019050919050565b60006020820190508181036000830152615b3281615af6565b9050919050565b7f4e6f207265776172647320746f20776974686472617700000000000000000000600082015250565b6000615b6f601683614211565b9150615b7a82615b39565b602082019050919050565b60006020820190508181036000830152615b9e81615b62565b9050919050565b7f4e6f204164730000000000000000000000000000000000000000000000000000600082015250565b6000615bdb600683614211565b9150615be682615ba5565b602082019050919050565b60006020820190508181036000830152615c0a81615bce565b9050919050565b6000615c1c82614153565b9150615c2783614153565b9250828203905081811115615c3f57615c3e6152ba565b5b92915050565b6000615c5082614153565b915060008203615c6357615c626152ba565b5b600182039050919050565b60008160001c9050919050565b6000819050919050565b6000615c98615c9383615c6e565b615c7b565b9050919050565b600073ffffffffffffffffffffffffffffffffffffffff82169050919050565b6000615cd2615ccd83615c6e565b615c9f565b9050919050565b60008154615ce68161500b565b615cf0818661457c565b94506001821660008114615d0b5760018114615d2157615d54565b60ff198316865281151560200286019350615d54565b615d2a8561503c565b60005b83811015615d4c57815481890152600182019150602081019050615d2d565b808801955050505b50505092915050565b600060a083016000808401549050615d7481615c85565b615d81600087018261455e565b5060018401549050615d9281615cbf565b615d9f602087018261456d565b50600284018583036040870152615db68382615cd9565b925050600384018583036060870152615dcf8382615cd9565b92505060048401549050615de281615c85565b615def608087018261455e565b50819250505092915050565b60006020820190508181036000830152615e158184615d5d565b905092915050565b7f43616e6e6f7420756e6c696b6500000000000000000000000000000000000000600082015250565b6000615e53600d83614211565b9150615e5e82615e1d565b602082019050919050565b60006020820190508181036000830152615e8281615e46565b9050919050565b600081905092915050565b60008190508160005260206000209050919050565b60008154615eb68161500b565b615ec08186615e89565b94506001821660008114615edb5760018114615ef057615f23565b60ff1983168652811515820286019350615f23565b615ef985615e94565b60005b83811015615f1b57815481890152600182019150602081019050615efc565b838801955050505b50505092915050565b6000615f388284615ea9565b91508190509291505056fea26469706673582212207e4decbb3a7f4cfe945f604ea473328f460108153990b8eef33706a7bac852dc64736f6c63430008130033",
  "linkReferences": {},
  "deployedLinkReferences": {}
}